:10C00000F85F02205D150100935B0200150F01002F
:10C01000150F0100150F0100150F0100150F01008C
:10C02000150F0100150F0100150F0100D90E0100B9
:10C03000150F0100150F0100290E01009D0A0100D6
:10C04000390F0100390F0100390F0100390F0100CC
:10C05000390F0100390F0100390F0100390F0100BC
:10C06000390F0100390F0100390F0100390F0100AC
:10C07000390F0100390F0100390F0100390F01009C
:10C08000390F0100390F0100390F0100390F01008C
:10C09000390F0100390F0100390F0100390F01007C
:10C0A000390F0100390F0100390F0100390F01006C
:10C0B000B1360100EB6C0200390F0100390F0100AD
:10C0C000390F0100390F0100390F0100390F01004C
:10C0D000390F0100390F0100390F0100390F01003C
:10C0E000390F0100390F0100096E0200390F0100FC
:10C0F000390F0100390F0100390F0100390F01001C
:10C10000390F0100390F0100390F0100390F01000B
:10C11000390F0100390F0100390F0100390F0100FB
:10C12000390F0100390F0100390F0100390F0100EB
:10C13000390F0100390F0100390F0100390F0100DB
:04C14000390F0100B2
:10C144007BB972B90029BEBF00204FF0004106E060
:10C1540008BF00281CBF6FF000414FF0FF3000F013
:10C16400C7B9ADF1080C6DE904CE002909DB002B39
:10C174001ADB00F04DF8DDF804E0DDE9022304B039
:10C184007047404261EB4101002B1BDB00F040F89B
:10C19400DDF804E0DDE9022304B0404261EB410133
:10C1A400524263EB43037047524263EB430300F094
:10C1B4002FF8DDF804E0DDE9022304B0404261EB2E
:10C1C40041017047524263EB430300F021F8DDF86C
:10C1D40004E0DDE9022304B0524263EB43037047F9
:10C1E40053B94AB9002908BF00281CBF4FF0FF31DA
:10C1F4004FF0FF3000F07CB9ADF1080C6DE904CECE
:10C2040000F006F8DDF804E0DDE9022304B070472D
:10C214002DE9F0478C46089D04468A46002B4AD1F6
:10C224008A42174662D9B2FA82F64EB1C6F1200E9E
:10C2340001FA06F3B740B44020FA0EFE4EEA030AB0
:10C244004FEA1748230C1FFA87F9BAFBF8FE08FBDC
:10C254001EAA0EFB09F243EA0A439A420BD9FB18C1
:10C264000EF1FF312CBF012000209A4202D9002890
:10C2740000F02A818E469A1AA3B2B2FBF8F008FBAA
:10C28400102200FB09F943EA0244A14507D93C19ED
:10C2940000F1FF3302D2A14500F210811846A4EB4D
:10C2A400090440EA0E4000211DB1F4400023C5E911
:10C2B4000043BDE8F0878B4208D9002D00F0F280DE
:10C2C4000021C5E9000C0846BDE8F087B3FA83F104
:10C2D40000294ED16345C0F0E880824240F2E580F7
:10C2E4000846002DE5D0C5E9004AE2E702B9FFDEC1
:10C2F400B2FA82F6002E40F099808B1A4FEA124E61
:10C304001FFA82F801214FEA144CB3FBFEF20EFB34
:10C31400123008FB02F94CEA004CE14508D917EB4E
:10C324000C0C02F1FF3302D2E14500F2CA801A4636
:10C33400ACEB090CA3B2BCFBFEF00EFB10CC08FB6B
:10C3440000F843EA0C44A0450ED93C1900F1FF3330
:10C354002CBF4FF0010C4FF0000CA04503D9BCF1E9
:10C36400000F00F0A8801846A4EB080440EA02403D
:10C374009AE7C1F120048B4002FA01FE0CFA01F69F
:10C38400E24020FA04F72CFA04FC00FA01F8134303
:10C394003E431F0C320C1FFA83F9BCFBF7F007FB7A
:10C3A40010CC00FB09FA42EA0C4CE24508D913EB25
:10C3B4000C0C00F1FF3202D2E24500F289801046F3
:10C3C400ACEB0A0CB6B2BCFBF7FA07FB1ACC0AFBBF
:10C3D40009F946EA0C42914506D99A180AF1FF3642
:10C3E40001D291457AD8B2464AEA0040A2EB09024A
:10C3F400A0FB0E67BA42B446B94602D307D1B04592
:10C4040005D2B6EB0E0C67EB030301389946002DF9
:10C414006BD0B8EB0C0362EB090202FA04F4CB40D4
:10C42400CA4000211C43C5E9004242E7B740C6F1B7
:10C43400200201FA06F3B44021FA02FC4FEA174E37
:10C4440020FA02F21FFA87F8BCFBFEF11A430EFB36
:10C4540011CC01FB08F0130C43EA0C4C604507D9DE
:10C4640017EB0C0C01F1FF3301D2604533D81946A8
:10C47400ACEB000C92B2BCFBFEF00EFB10CC00FB4C
:10C4840008F342EA0C4C634507D917EB0C0C00F196
:10C49400FF3201D2634525D81046ACEB030340EAD2
:10C4A400014130E72946284603E7841A6CEB03036D
:10C4B40001209A4615E702383C4455E702383C44CB
:10C4C400EDE6023ABC4433E7AEF1020E3B44D2E659
:10C4D40002389C4474E70239BC44C9E7AAF1020A51
:10C4E4001A4481E70238BC44D7E72946E1E600BF95
:10C4F400704700BF70B491E87800B2E802105B188E
:10C5040054EB0C04B2E802104D4156EB0C0680E8E3
:10C5140078008041013070BC704770B491E87800B5
:10C52400B2E802105B1A74EB0C04B2E802108D41FD
:10C5340076EB0C0680E878008041404270BC70477E
:10C544002DE9F00791E8F807B2E802105B1854EB04
:10C554000C04B2E802104D4156EB0C06B2E802108E
:10C564004F4158EB0C08B2E8021059EB01095AEBA1
:10C574000C0A80E8F80780410130BDE8F0077047F5
:10C584002DE9F00791E8F807B2E802105B1A74EBA2
:10C594000C04B2E802108D4176EB0C06B2E80210EE
:10C5A4008F4178EB0C08B2E8021079EB01097AEBC1
:10C5B4000C0A80E8F80780414042BDE8F007704764
:10C5C4002DE9F007524290E87800B1E8800717405F
:10C5D400DB1918EA020854EB080419EA020955EBBE
:10C5E40009051AEA020A56EB0A0678C090E87800B0
:10C5F400B1E8800717407B4118EA020854EB0804AD
:10C6040019EA020955EB09051AEA020A56EB0A0669
:10C6140078C080410130BDE8F00770472DE9F0078C
:10C62400524290E87800B1E880071740DB1B18EA13
:10C63400020874EB080419EA020975EB09051AEA01
:10C64400020A76EB0A0678C090E87800B1E8800721
:10C654001740BB4118EA020874EB080419EA0209FE
:10C6640075EB09051AEA020A76EB0A0678C08041DE
:10C674004042BDE8F007704790E8300091E8C00000
:10C68400A31B1340E41AF618EB1B1340ED1AFF1812
:10C6940030C0C0C17047F0B55242FFF7EDFFFFF75D
:10C6A400EBFFFFF7E9FFFFF7E7FFF0BD2DE9F00728
:10C6B4003AC91668A1FB069A4FF0000CE3FB06ACDE
:10C6C4004FF00007E4FB06C74FF00008E5FB0678CF
:10C6D40040F8049B56684FF00009E1FB06A91CEBE7
:10C6E400090C4FF0000949EB0909E3FB06C917EBF4
:10C6F40009074FF0000949EB0909E4FB067918EB37
:10C7040009084FF0000949EB0909E5FB068940F8DF
:10C7140004AB96684FF0000AE1FB06CA17EB0A0760
:10C724004FF0000A4AEB0A0AE3FB067A18EB0A0800
:10C734004FF0000A4AEB0A0AE4FB068A19EB0A09DD
:10C744004FF0000A4AEB0A0AE5FB069A40F804CBCC
:10C75400D6684FF0000CE1FB067C18EB0C084FF098
:10C76400000C4CEB0C0CE3FB068C19EB0C094FF0A2
:10C77400000C4CEB0C0CE4FB069C1AEB0C0A4FF07F
:10C78400000C4CEB0C0CE5FB06AC80E88017BDE814
:10C79400F00770470A462DE9F04F41EC140A92EC79
:10C7A400080A1EC910EE100AA1FB00784FF0000918
:10C7B400E2FB00894FF0000AE3FB009A4FF0000B04
:10C7C400E4FB00AB12EE100A4FF0000CE1FB00BCDE
:10C7D4004FF0000EE2FB00CE4FF00005E3FB00E556
:10C7E4004FF00006E4FB005605EE107A10EE900AB6
:10C7F4004FF00007E1FB008719EB07094FF0000732
:10C8040047EB0707E2FB00971AEB070A4FF0000714
:10C8140047EB0707E3FB00A71BEB070B4FF00007F1
:10C8240047EB0707E4FB00B712EE900A1CEB070C7A
:10C834004FF0000747EB0707E1FB00C71EEB070EAD
:10C844004FF0000747EB0707E2FB00E7ED194FF055
:10C85400000747EB0707E3FB0057F6194FF0000703
:10C8640047EB0707E4FB006705EE908A11EE100A18
:10C874004FF00008E1FB00981AEB080A4FF000089B
:10C8840048EB0808E2FB00A81BEB080B4FF000087C
:10C8940048EB0808E3FB00B81CEB080C4FF0000859
:10C8A40048EB0808E4FB00C813EE100A1EEB080E60
:10C8B4004FF0000848EB0808E1FB00E815EB080519
:10C8C4004FF0000848EB0808E2FB005816EB080696
:10C8D4004FF0000848EB0808E3FB006817EB080773
:10C8E4004FF0000848EB0808E4FB007806EE109AC5
:10C8F40011EE900A4FF00009E1FB00A91BEB090BB4
:10C904004FF0000949EB0909E2FB00B91CEB090CE3
:10C914004FF0000949EB0909E3FB00C91EEB090EBE
:10C924004FF0000949EB0909E4FB00E913EE900A12
:10C9340015EB09054FF0000949EB0909E1FB005922
:10C9440016EB09064FF0000949EB0909E2FB0069FF
:10C9540017EB09074FF0000949EB0909E3FB0079DC
:10C9640018EB09084FF0000949EB0909E4FB0089B9
:10C9740006EE90AA14EE901A01F110011EC910EEF1
:10C98400100A4FF0000AE1FB00BA1CEB0A0C4FF04E
:10C99400000A4AEB0A0AE2FB00CA1EEB0A0E4FF039
:10C9A400000A4AEB0A0AE3FB00EA15EB0A054FF01A
:10C9B400000A4AEB0A0AE4FB005A12EE100A16EBCC
:10C9C4000A064FF0000A4AEB0A0AE1FB006A17EB79
:10C9D4000A074FF0000A4AEB0A0AE2FB007A18EB56
:10C9E4000A084FF0000A4AEB0A0AE3FB008A19EB33
:10C9F4000A094FF0000A4AEB0A0AE4FB009A07EE20
:10CA040010BA10EE900A4FF0000BE1FB00CB1EEBC6
:10CA14000B0E4FF0000B4BEB0B0BE2FB00EB15EB9B
:10CA24000B054FF0000B4BEB0B0BE3FB005B16EB22
:10CA34000B064FF0000B4BEB0B0BE4FB006B12EE01
:10CA4400900A17EB0B074FF0000B4BEB0B0BE1FBC2
:10CA5400007B18EB0B084FF0000B4BEB0B0BE2FBCE
:10CA6400008B19EB0B094FF0000B4BEB0B0BE3FBAB
:10CA7400009B1AEB0B0A4FF0000B4BEB0B0BE4FB88
:10CA840000AB07EE90CA11EE100A4FF0000CE1FB68
:10CA940000EC15EB0C054FF0000C4CEB0C0CE2FB1E
:10CAA400005C16EB0C064FF0000C4CEB0C0CE3FB9B
:10CAB400006C17EB0C074FF0000C4CEB0C0CE4FB78
:10CAC400007C13EE100A18EB0C084FF0000C4CEB32
:10CAD4000C0CE1FB008C19EB0C094FF0000C4CEB37
:10CAE4000C0CE2FB009C1AEB0C0A4FF0000C4CEB14
:10CAF4000C0CE3FB00AC1BEB0C0B4FF0000C4CEBF1
:10CB04000C0CE4FB00BC08EE10EA11EE900A4FF0A6
:10CB1400000EE1FB005E16EB0E064FF0000E4EEB2E
:10CB24000E0EE2FB006E17EB0E074FF0000E4EEBFD
:10CB34000E0EE3FB007E18EB0E084FF0000E4EEBDA
:10CB44000E0EE4FB008E13EE900A19EB0E094FF063
:10CB5400000E4EEB0E0EE1FB009E1AEB0E0A4FF098
:10CB6400000E4EEB0E0EE2FB00AE1BEB0E0B4FF075
:10CB7400000E4EEB0E0EE3FB00BE1CEB0E0C4FF052
:10CB8400000E4EEB0E0EE4FB00CE14EE100AA0ECE9
:10CB9400075A80E8E05FBDE8F08F00BF30B44FF083
:10CBA400000310F8014B11F8015B013A84EA050413
:10CBB40043EA0403F5D1A3F101034FEAD37030BC77
:10CBC40070474FF0000310F8012B013943EA0203C8
:10CBD400F9D1A3F101034FEAD370704711F8013B77
:10CBE40000F8013B013AF9D17047002200F8012B0B
:10CBF4000139FBD1704700BF2DE9F00791E8F80730
:10CC0400B2E802105B1854EB0C04B2E802104D4178
:10CC140056EB0C06B2E802104F4158EB0C08B2E890
:10CC2400021059EB01095AEB0C0A8941B3F1FF33A5
:10CC340074F1FF3475F1FF3576F1000677F10007E2
:10CC440078F1000879F101097AF1FF3A51F1000114
:10CC54004A425B184C414D4156F1000657F100071A
:10CC640058F1000859EB02095AEB010A80E8F80769
:10CC7400BDE8F00770472DE9F00791E8F807B2E83E
:10CC840002105B1A74EB0C04B2E802108D4176EBCF
:10CC94000C06B2E802108F4178EB0C08B2E80210DF
:10CCA40079EB01097AEB0C0A89414A425B184C4141
:10CCB4004D4156F1000657F1000758F1000859EBB1
:10CCC40002095AEB010A80E8F807BDE8F00770474B
:10CCD4000A462DE9F04F41EC140A92EC080A1EC9E9
:10CCE40010EE100AA1FB00784FF00009E2FB008966
:10CCF4004FF0000AE3FB009A4FF0000BE4FB00AB9B
:10CD040012EE100A4FF0000CE1FB00BC4FF0000ED5
:10CD1400E2FB00CE4FF00005E3FB00E54FF0000618
:10CD2400E4FB005605EE107A10EE900A4FF000076F
:10CD3400E1FB008719EB07094FF0000747EB0707F2
:10CD4400E2FB00971AEB070A4FF0000747EB0707CF
:10CD5400E3FB00A71BEB070B4FF0000747EB0707AC
:10CD6400E4FB00B712EE900A1CEB070C4FF000072F
:10CD740047EB0707E1FB00C71EEB070E4FF0000768
:10CD840047EB0707E2FB00E7ED194FF0000747EB1D
:10CD94000707E3FB0057F6194FF0000747EB0707B7
:10CDA400E4FB006705EE908A11EE100A4FF00008CC
:10CDB400E1FB00981AEB080A4FF0000848EB08085A
:10CDC400E2FB00A81BEB080B4FF0000848EB080837
:10CDD400E3FB00B81CEB080C4FF0000848EB080814
:10CDE400E4FB00C813EE100A1EEB080E4FF0000817
:10CDF40048EB0808E1FB00E815EB08054FF00008D4
:10CE040048EB0808E2FB005816EB08064FF0000850
:10CE140048EB0808E3FB006817EB08074FF000082D
:10CE240048EB0808E4FB007806EE109A11EE900A2D
:10CE34004FF00009E1FB00A91BEB090B4FF00009BF
:10CE440049EB0909E2FB00B91CEB090C4FF000099E
:10CE540049EB0909E3FB00C91EEB090E4FF0000979
:10CE640049EB0909E4FB00E913EE900A15EB090507
:10CE74004FF0000949EB0909E1FB005916EB0906DB
:10CE84004FF0000949EB0909E2FB006917EB0907B8
:10CE94004FF0000949EB0909E3FB007918EB090895
:10CEA4004FF0000949EB0909E4FB008906EE90AA5A
:10CEB40014EE901A01F110011EC910EE100A4FF081
:10CEC400000AE1FB00BA1CEB0A0C4FF0000A4AEB23
:10CED4000A0AE2FB00CA1EEB0A0E4FF0000A4AEBF4
:10CEE4000A0AE3FB00EA15EB0A054FF0000A4AEBD5
:10CEF4000A0AE4FB005A12EE100A16EB0A064FF077
:10CF0400000A4AEB0A0AE1FB006A17EB0A074FF032
:10CF1400000A4AEB0A0AE2FB007A18EB0A084FF00F
:10CF2400000A4AEB0A0AE3FB008A19EB0A094FF0EC
:10CF3400000A4AEB0A0AE4FB009A07EE10BA10EE64
:10CF4400900A4FF0000BE1FB00CB1EEB0B0E4FF0F1
:10CF5400000B4BEB0B0BE2FB00EB15EB0B054FF05F
:10CF6400000B4BEB0B0BE3FB005B16EB0B064FF0DC
:10CF7400000B4BEB0B0BE4FB006B12EE900A17EB70
:10CF84000B074FF0000B4BEB0B0BE1FB007B18EB9B
:10CF94000B084FF0000B4BEB0B0BE2FB008B19EB78
:10CFA4000B094FF0000B4BEB0B0BE3FB009B1AEB55
:10CFB4000B0A4FF0000B4BEB0B0BE4FB00AB07EE43
:10CFC40090CA11EE100A4FF0000CE1FB00EC15EBD7
:10CFD4000C054FF0000C4CEB0C0CE2FB005C16EB68
:10CFE4000C064FF0000C4CEB0C0CE3FB006C17EB45
:10CFF4000C074FF0000C4CEB0C0CE4FB007C13EE24
:10D00400100A18EB0C084FF0000C4CEB0C0CE1FB75
:10D01400008C19EB0C094FF0000C4CEB0C0CE2FBF0
:10D02400009C1AEB0C0A4FF0000C4CEB0C0CE3FBCD
:10D0340000AC1BEB0C0B4FF0000C4CEB0C0CE4FBAA
:10D0440000BC08EE10EA11EE900A4FF0000EE1FB6E
:10D05400005E16EB0E064FF0000E4EEB0E0EE2FBDA
:10D06400006E17EB0E074FF0000E4EEB0E0EE3FBB7
:10D07400007E18EB0E084FF0000E4EEB0E0EE4FB94
:10D08400008E13EE900A19EB0E094FF0000E4EEBD2
:10D094000E0EE1FB009E1AEB0E0A4FF0000E4EEB53
:10D0A4000E0EE2FB00AE1BEB0E0B4FF0000E4EEB30
:10D0B4000E0EE3FB00BE1CEB0E0C4FF0000E4EEB0D
:10D0C4000E0EE4FB00CE53EC172A18EE104A12EBB6
:10D0D4000A0253EB0B0354EB0C0455EB0E05002032
:10D0E40040F1000012EB0B0253EB0C0354EB0E0463
:10D0F40055EB0E0546410020474158EB000859EB1B
:10D104000A0940F10000B2EB0E0273F1000374F15E
:10D11400000475EB0A0576EB0B0677EB0C0778EB4E
:10D124000A0879EB0C0960F10000B5EB0B0576EB0E
:10D134000C0677EB0E0778EB0B0879EB0E0960F120
:10D1440000005FEAE07C7FEA0C0CDCF1000EB2EB3D
:10D154000C0273EB0C0374EB0C0475F1000576F10F
:10D16400000677F1000778EB0E0879EB0C0960F103
:10D1740000005FEAE07CDCF1000E12EB0C0253EBE2
:10D184000C0354EB0C0455F1000556F1000657F15D
:10D19400000758EB0E0859EB0C0940F100005FEA58
:10D1A400E07CDCF1000E12EB0C0253EB0C0354EBAD
:10D1B4000C0455F1000556F1000657F1000758EB31
:10D1C4000E0859EB0C095BEC15AA51EC160A1AEB84
:10D1D400060A5BEB070B50EB080051EB09015FF00B
:10D1E400000C4CF1000C1AEB070A5BEB080B50EB3C
:10D1F400090051EB090152EB0C025FF0000C53EBF8
:10D204000C0354EB0C0475414CF1000CBAEB090A05
:10D214007BF1000B70F10000B141BA4173EB0803DC
:10D22400B44175EB08056CF1000CC91B72EB0802E4
:10D2340073EB0903BC4175EB09056CF1000C5FEA63
:10D24400EC787FEA0808D8F10009BAEB080A7BEB0E
:10D25400080B70EB080071F1000172F1000273F128
:10D26400000374EB090475EB08056CF1000C5FEA2C
:10D27400EC78D8F100091AEB080A5BEB080B50EBC9
:10D28400080051F1000152F1000253F1000354EB84
:10D29400090455EB08054CF1000C5FEAEC78D8F171
:10D2A40000091AEB080A5BEB080B50EB080051F17C
:10D2B400000152F1000253F1000354EB090455EB51
:10D2C400080514EE107AA7E8000C87E83F00BDE8D3
:10D2D400F08F00BF074B196801311960064B1A78AB
:10D2E400064B2AB1012018701B78054818F025BC9C
:10D2F4001A70F9E7A80002200D24022054830220AA
:10D3040045A7020010B50E4C0E4823680133236074
:10D314000D4B19680131196018F00FFC21680B4896
:10D3240018F00BFC01220A4B21681A70094B0A4AB7
:10D334001B7812780948BDE8104018F0FEBB00BF06
:10D34400A0000220F1A602004401022002A702006C
:10D3540055830220548302200D24022017A70200C3
:10D3640038B5114C11492268097801322260104DF8
:10D3740049B1062192FBF1F301FB13221AB90120F2
:10D38400287001F02DFF2B7863B10622216891FBF0
:10D39400F2F302FB1313012B04D1BDE83840002043
:10D3A40001F01EBF38BD00BFA4000220DE2202200F
:10D3B4002636022010B5114C23684BB91049114888
:10D3C4004D23114A18F0B9FB4D210F4818F0C2FB48
:10D3D40023689B694BB90D490A484E230A4A18F041
:10D3E400ACFB4E21084818F0B5FB23684EF66022CA
:10D3F400BDE810409B69012105481847A801022097
:10D404009FAB0200AAAB02006DAB0200C7AB0200E7
:10D41400980002202DE9F04788B00B7802AF064649
:10D424000C46072B00F2D180DFE813F0080034002B
:10D434003F00B900CF00CF00CF00C500CD6925B1B2
:10D444002946644818F079FB20E00122624B634CC2
:10D454001A70634940F22312624818F06EFB2046AA
:10D46400FC6018F093FC07F10C037B605E4B3861A1
:10D474002046BB603D7518F089FC214602465B4896
:10D4840018F05BFB391D5A4819F0A0F91837BD464E
:10D49400BDE8F087CB6940F229125149554818F08C
:10D4A4004CFB00224C4B1A70F0E74B694FF4997215
:10D4B4000093CB6950484A49504D18F03EFBD4F8CC
:10D4C40014904FF480620021284618F0F7FCB9F557
:10D4D400806F05EB09085FD8DFF86491DFF864A179
:10D4E400A8452BD80026E8466569444905F1080398
:10D4F40023F00703ADEB030D02AC2A46204618F0D7
:10D50400B0FC665522463E493E4818F016FB3E4B99
:10D51400C5461C78002C3DD1384802F04DF83B48F4
:10D5240018F066FB3A4B3B4D18603B483B4B984226
:10D534002ED018F05DFB78302860A7E72946A8EBC9
:10D544000502304619F0B6F9011E1EDA11F10B0F6F
:10D5540008D1484618F0F1FAFFF72CFF00280FDC39
:10D564006FF004012E4818F0E8FA2E4818F0E5FA96
:10D57400304619F004F90146002887D02A4861E7AB
:10D58400BAF80630DB07ABD4EAE7E9D00D44A7E7E5
:10D594002C607BE71E7079E76FF02301E2E7C9692D
:10D5A40009B122484EE74FF4B172A3880C492048D0
:10D5B40018F0C3FA6AE7C96909B11E4842E7A388AB
:10D5C4004FF4B67206491C48F2E740F2711204495E
:10D5D4001A48EDE7A1A902000D240220D9A90200EE
:10D5E40094A60200B9A902000100D204F2A9020023
:10D5F400200002200DAA020032AA020024280220E0
:10D604005CAB020067AB0200253002202C360220FE
:10D61400440102204C010220EE3C02207CAA0200BC
:10D6240080AA0200A7AA0200C5AA0200DFAA02007B
:10D63400F5AA020013AB020029AB020047AB0200BB
:10D6440059AA020098000220436870B55B6C044636
:10D6540003B1984763682B4D5B6B63B120469847D1
:10D6640048B163689B69FBB14FF480722946204638
:10D67400984700232B542349234818F05EFA2B784B
:10D68400224C5B2B12D1422323702378422B11D1DD
:10D694001F4C20482368012218441A4918F0E1FB62
:10D6A40023680133236070BD1846E2E75D2BECD19B
:10D6B4004323E9E7432BF6D1154E4FF48072002142
:10D6C400154818F0FBFB134D306801220D4928441E
:10D6D40018F0C7FB3268691C013A0F4818F0C1FB07
:10D6E4000D490E4818F029FA412300214FF48072A5
:10D6F40028462370316018F0E1FB0122084B1A70B0
:10D70400D1E700BF263502204AAF02005083022031
:10D714008800022026300220DF2202205BAF0200B4
:10D72400558302200146014818F007BAD3A6020027
:10D7340010B5084C0146084818F0FFF9224607497D
:10D744000748AA2318F0F9F92046BDE81040AA2199
:10D7540018F000BAC5A60200A5A6020099C30200EB
:10D76400AAAB02002DE9F0430546E04C87B0DFF890
:10D7740058844FF4806200AF0021204618F09EFBCD
:10D784000A220021404618F099FBD949204618F096
:10D7940021FBD849204618F01DFB2946D64DD74E0B
:10D7A400204618F017FB2946204618F013FB314693
:10D7B400204618F00FFBD249204618F00BFBD14944
:10D7C400204618F007FB2946204618F003FB314693
:10D7D400204618F0FFFACC49204618F0FBFA01F075
:10D7E40097FD0A22414617F065FD4146204618F090
:10D7F400F1FA2946204618F0EDFA3146204618F091
:10D80400E9FAC249204618F0E5FAC149204618F061
:10D81400E1FA2946204618F0DDFA3146204618F090
:10D82400D9FABC49204618F0D5FABB49204618F06D
:10D83400D1FA2946204618F0CDFA3146204618F090
:10D84400C9FAB649204618F0C5FAB549204618F079
:10D85400C1FA2946204618F0BDFA3146204618F090
:10D86400B9FAB049204618F0B5FAAF49204618F085
:10D87400B1FA2946204618F0ADFA3146204618F090
:10D88400A9FAAA49204618F0A5FAA949204618F091
:10D89400A1FA2946204618F09DFA3146204618F090
:10D8A40099FAA449204618F095FAA349204618F09D
:10D8B40091FA2946204618F08DFA3146204618F090
:10D8C40089FA9E49204618F085FA9D49204618F0A9
:10D8D40081FA2946204618F07DFA3146204618F090
:10D8E40079FA9849204618F075FA9749204618F0B5
:10D8F40071FA2946204618F06DFA3146204618F090
:10D9040069FA9249204618F065FA9149204618F0C0
:10D9140061FA2946204618F05DFA3146204618F08F
:10D9240059FA8C49204618F055FA8B49204618F0CC
:10D9340051FA2946204618F04DFA3146204618F08F
:10D9440049FA8649204618F045FA8549204618F0D8
:10D9540041FA2946204618F03DFA3146204618F08F
:10D9640039FA8049204618F035FA7F49204618F0E4
:10D9740031FA2946204618F02DFA3146204618F08F
:10D9840029FA7A49204618F025FA7949204618F0F0
:10D9940021FA2946204618F01DFA3146204618F08F
:10D9A40019FA7449204618F015FA7349204618F0FC
:10D9B40011FA2946204618F00DFA3146204618F08F
:10D9C40009FA6E49204618F005FA6D49204618F008
:10D9D40001FA2946204618F0FDF93146204618F090
:10D9E400F9F96849204618F0F5F96749204618F016
:10D9F400F1F92946204618F0EDF93146204618F091
:10DA0400E9F96249204618F0E5F96149204618F021
:10DA1400E1F92946204618F0DDF93146204618F090
:10DA2400D9F95C49204618F0D5F95B49204618F02D
:10DA3400D1F92946204618F0CDF93146204618F090
:10DA4400C9F95649204618F0C5F95549204618F039
:10DA5400C1F92946204618F0BDF93146204618F090
:10DA6400B9F95049204618F0B5F94F49204618F045
:10DA7400B1F92946204618F0ADF93146204618F090
:10DA8400A9F94A49204618F0A5F94949204618F051
:10DA9400A1F92946204618F09DF93146204618F090
:10DAA40099F94449204618F095F94349204618F05D
:10DAB40091F92946204618F08DF93146204618F090
:10DAC40089F93E49204618F085F93D49204618F069
:10DAD40081F92946204618F07DF93146204618F090
:10DAE40079F93849204618F075F96FE012240220BC
:10DAF400D8AB0200DBAB02002FAC0200EDAB02009E
:10DB0400EFAB0200E8A90200FFAB02000EAC02007A
:10DB14002C36022022AC02003136022032AC020044
:10DB2400763602203FAC0200BB3602204EAC020027
:10DB3400003702205BAC0200453702206AAC0200C9
:10DB44008A3702207AAC0200CF37022087AC020069
:10DB54001438022096AC020059380220A3AC02000B
:10DB64009E380220B2AC0200E3380220C2AC0200AC
:10DB740028390220CFAC02006D390220DEAC02004D
:10DB8400B2390220EBAC0200F7390220FAAC0200F1
:10DB94003C3A02200AAD0200813A022017AD02008D
:10DBA400C63A022026AD02000B3B022033AD020030
:10DBB400503B022042AD0200953B022052AD0200D0
:10DBC400DA3B02205FAD0200F323022034492046F1
:10DBD40018F000F92946204618F0FCF83146204692
:10DBE40018F0F8F82F49204618F0F4F82E4920468A
:10DBF40018F0F0F82946204618F0ECF83146204693
:10DC040018F0E8F82949204618F0E4F82849204695
:10DC140018F0E0F82946204618F0DCF8254920469B
:10DC240018F0D8F8204618F0B1F84FF00008224D4B
:10DC34000646284687F808803D6018F0A7F8C7E92B
:10DC44000346786002F0B4FDE946BB7DB88203F078
:10DC5400FE0343F00203BB7506F1080323F0070338
:10DC6400ADEB030D32462146684618F0FAF86A46D1
:10DC74000DF806801149124817F05FFF2846CD467B
:10DC840018F084F8294602460E4817F056FF394624
:10DC94000D4818F046FD1C37BD46BDE8F08300BFB3
:10DCA4001F3C02206EAD0200643C02207BAD0200EA
:10DCB400A93C02208AAD02008DAD0200A7AD02008E
:10DCC40067AB0200B4AD020020000220F0B5994B0E
:10DCD40099B01B78002B7AD1974A984D137001F0B4
:10DCE40045F86421964A012001F08EF8954817F012
:10DCF40024FF954804F0AAFE0146286010B1934819
:10DD040017F01BFF924817F018FF8F4818F037FDE3
:10DD1400014628608F4817F010FF296811B18E481A
:10DD240017F00BFF884818F0A4FC2022002106A855
:10DD340018F0C4F80123894CCDE9073323684BB9A3
:10DD4400874988489323884A17F0F7FE9321864829
:10DD540017F000FF23685B6B4BB984498148942317
:10DD6400814A17F0EAFE94217F4817F0F3FE2368F6
:10DD740000215E6B06AA01AB7D48B0477D4E01468B
:10DD840038B37D4817F0D9FE6F4C7C4B7C48A364B4
:10DD94006663E06217F0FAFF042284F85C20794A93
:10DDA4000023E2644FF48062774920632046C4E98B
:10DDB4001512C4E90E33226584F8243018F06FFC80
:10DDC4000146286000283FD0704817F0B6FE19B00D
:10DDD400F0BD019B9BB1196908292FD15B69012012
:10DDE4005B68311D736045F607333080738002AA87
:10DDF400102304F021FB02A9654817F09EFE236856
:10DE0400019F4BB9564957489B23574A17F095FE33
:10DE14009B21554817F09EFE23689B6B4BB95D49C7
:10DE240050489C23504A17F088FE9C214E4817F016
:10DE340091FE236838469B6B9847A5E71823082270
:10DE4400554817F07AFEDAE794F8243023B16FF0DE
:10DE5400220152482960B8E7A36A514E3360012376
:10DE6400B380FFF7A7FA0028286005DA13F0DEFE76
:10DE740001684C4817F061FE334804F0E7FD0146A1
:10DE8400286010B1314817F058FEF388D90708D537
:10DE94002D4818F0E6FC0146286010B1424817F0FE
:10DEA4004CFEF3881A0702D5404817F046FEF38863
:10DEB4009B0602D53E4817F040FE4522002106A8E5
:10DEC40017F0FCFF0A2200213A4817F0F7FF3A49FD
:10DED40006A817F07FFF394906A817F07BFF2849E9
:10DEE40006A817F077FF354906A817F073FF344DDD
:10DEF40001F00EFA0A222F4917F0DCF92D4906A881
:10DF040017F068FF2B782F4C7BB12F48FFF72AFCC2
:10DF140002222E4B1A7000232B700123237001233D
:10DF24002B4A13702B4A137051E72348FFF71AFC4E
:10DF3400F3E700BF0D240220DE2202209400022019
:10DF4400CAAD0200A7AA020020000220D8AD020038
:10DF5400EDAD020000AE02000AAE0200A8010220EC
:10DF64009FAB0200AAAB02006DAB020037AE020009
:10DF74004FAE02003C22022061AE020019D4000020
:10DF8400E8A90200252C022026310220D3AE02008B
:10DF94007FAE0200BAAE020096AE0200EBAE020003
:10DFA40098000220FFAE02000FAF020025AF02006E
:10DFB4002EAF0200F323022038AF0200EDAB0200C3
:10DFC400538302202530022042AF02000E24022097
:10DFD400558302205483022070B52C4E3278002AD7
:10DFE4003CD02B4B1B78002B37D0FFF7E3F9294D9E
:10DFF4000028286005DA13F019FE0168264817F096
:10E004009CFD264804F022FD0146286010B12448F6
:10E0140017F093FD234CE388D90708D51F4818F05F
:10E0240020FC0146286010B11F4817F086FDE388E4
:10E034001A0702D51D4817F080FDE3889B0602D518
:10E044001B4817F07AFD1B4817F0A0FE1949024639
:10E05400194817F072FD0023337070BDFFF7AAF959
:10E064000C4C0028206005DA13F0E0FD01680A4832
:10E0740017F063FD094804F0E9FC0146206000281C
:10E08400EBD0BDE87040064817F057BD548302201A
:10E094000D24022094000220FFAE02002000022082
:10E0A400D8AD0200980002200FAF020025AF020095
:10E0B4002EAF02002428022089A902000122044B69
:10E0C4001A700023034A1360034A1360704700BFA9
:10E0D40051830220100002201400022038B50B4B9B
:10E0E4000B4C18680622436800219D682346A84704
:10E0F4002268084942B90B68012B05D10648047807
:10E10400002C18BF134603700A6038BD900002202B
:10E114001000022014000220518302200122044B2B
:10E124001A700023034A1360034A1360704700BF48
:10E1340052830220180002201C00022038B50B4B29
:10E144000B4C18680722436800219D682346A847A2
:10E154002268084942B90B68012B05D106480478A6
:10E16400002C18BF134603700A6038BD90000220CB
:10E17400180002201C0002205283022010B5174C04
:10E184000A220021204617F099FE01F0C1F8A0F6FA
:10E19400E44007EE900ADFED126AB8EEE77AC7EEC4
:10E1A400267A9FED107A67EE877A9FED0F7A0F4BF0
:10E1B4002146C3ED007A77EE877AFDEEE77A0C4BC1
:10E1C40017EE900A0A22C3ED007A17F073F820467E
:10E1D400BDE81040074917F0FDBD00BFDF23022052
:10E1E400000061440000C842000000000800022052
:10E1F4000C0002206FAF02002DE9FF47774813F0AF
:10E20400EFFC0546764813F0EBFC0446284617F06D
:10E2140091F863682BB19B6C1BB12246714920466F
:10E224009847204617F086F8204600F061FF00F07A
:10E2340043FD00F02DFD6C4817F07FFC00F096FDC7
:10E244006A4817F07AFC6A4813F0CAFC694D002446
:10E25400286000F073FF00F0CBFF674813F0C0FCA8
:10E2640040F20113ADF8003002238DF80C30029314
:10E27400436801225E6801A95A238DF80240CDF853
:10E2840004D0B0473C215D4817F057FC012000F052
:10E29400A7FF4FF47A7015F097FB204600F0A0FF1B
:10E2A4004FF4487017F04BF917F0F4F8014654484E
:10E2B40017F043FC01F02CF80146524817F03DFCDE
:10E2C40001F02EF80146504817F037FC01F040F8F1
:10E2D40001464E4817F031FC01F02AF801464C483B
:10E2E40017F02BFC01F03CF801464A4817F025FCD6
:10E2F40022464949494819F03BFA4EF660224748FC
:10E30400114616F031F922464549464819F030FACB
:10E314004FF47A724348114616F026F922464249D0
:10E32400424819F025FA4EF660224048114616F08C
:10E334001BF93F4817F001FC22461121286816F00A
:10E34400FEFF22461021286816F0F9FF012215214C
:10E35400286816F0F4FF01221B21286816F0EFFF4D
:10E3640042F2117604F0010213212868013416F0F8
:10E37400E6FFB442F6D1DFF8C8902E4C4E46FFF7C4
:10E38400A5FCFFF729FE99F80030013B062BF6D8CF
:10E3940001A252F823F000BFB9E3000049E40000F1
:10E3A40011E6000083E30000DFEA00004DEB00000B
:10E3B400A1EB00002378002BE1D00023237000F0B0
:10E3C400D5FC1D4A6421012000F01EFD1B4A50218A
:10E3D400012000F019FDFFF779FCD0E775A70200D2
:10E3E4007CA702004DD6000083A7020090A702007C
:10E3F400A4A7020090000220ABA70200B1A702006C
:10E40400D1A70200EBA7020005A802001FA8020082
:10E4140039A8020053A80200D9D200000401022046
:10E4240065D30000D800022009D30000AC0002200C
:10E434006DA8020055830220CAAD020099C30200F0
:10E444000E2402202378002B00F09B8000272770E5
:10E45400FFF734FEFFF762FE01221B21286816F045
:10E464006EFF01221521286816F069FF01F0D8F922
:10E4740000F07CFC3C214E4BDFF888C118684D4B02
:10E4840090FBF1F207EE902AF8EEE77AC3ED007AFA
:10E49400FDEEE77A01FB120217EE903A0C20CCED68
:10E4A400007A93FBF0FCDFF8608100FB1C30C8F8B5
:10E4B400002041490A2216F0FDFE0A223F49D8F8FD
:10E4C400000016F0F7FE0A2239463D4817F0F6FC24
:10E4D40039493B4817F07EFC3A49394817F07AFC31
:10E4E4003649374817F076FC334A9121012000F071
:10E4F40083FD324A5A21012000F07EFD0A2239466A
:10E50400314817F0DBFC0A223946304817F0D6FCB4
:10E5140000F0FEFE0A222C4916F0CCFE00F010FF9B
:10E524000A222A4916F0C6FE2949274817F052FC48
:10E534002649254817F04EFC2649234817F04AFC83
:10E54400FFF71CFE244817F021FC234AA021C0F148
:10E55400110000F059FC214B0A221868204916F0DA
:10E56400A9FE20491E4817F035FC1F491C4817F026
:10E5740031FC01201C4A142100F046FC1B4817F012
:10E58400DCFA1B4B1B68002B0FDD1A4A1A4B9A420C
:10E594000BD04FF480720021184817F08FFC012330
:10E5A400174A237013700323337002F0ABFCE6E6C2
:10E5B400440102208C000220072402200A240220A5
:10E5C400FD23022009A90200F3230220E9230220EB
:10E5D4007CA802006FAF0200DF230220A00002200B
:10E5E4001228022081A80200E8A9020087A80200DC
:10E5F40048010220EE3C02207CAA0200DF22022015
:10E60400242C02208000022084000220B74FDFF86F
:10E614006CA33B7843B100233B70FFF74FFDFFF73A
:10E624007DFD01238AF80030FFF758FDFFF786FDD2
:10E63400AF4B1B211A78286816F081FE9AF8003037
:10E64400DFF83C832BB998F800201521286816F0D0
:10E6540076FE98F8003043B99AF800202AB18AF877
:10E664000030FFF72BFDFFF759FD2378DFF8148303
:10E67400002B00F08A804FF0000A84F800A001F01B
:10E68400CFF800F073FB51460A229A4817F016FCA3
:10E6940000F03EFE0A22974916F00CFE9649954872
:10E6A40017F098FBFFF76AFD944817F06FFB934A45
:10E6B400A021C0F1110000F0A7FB5046904A8C2124
:10E6C40000F01EFC8F49904817F068FB824648B959
:10E6D4008E498F4817F062FB20B18C4A6E21504658
:10E6E40000F00EFC8B49884817F058FB824648B965
:10E6F4008949874817F052FB20B1874A5021504678
:10E7040000F0FEFB8549804817F048FB824648B973
:10E7140083497F4817F042FB20B1814A3221504699
:10E7240000F0EEFB7F49784817F038FB824648B981
:10E734007D49774817F032FB20B17B4A14215046BB
:10E7440000F0DEFB7949704817F028FB824648B98F
:10E7540077496F4817F022FB20B1754A0A215046C9
:10E7640000F052FB0A227349D8F8000016F0A2FD0B
:10E77400704A0F21012000F047FB6F48D8F80010C1
:10E7840017F0DBF96D4817F0D8F901F049F8D8F81B
:10E7940000302BB16A4B1A686A4B1B689A4204DB3F
:10E7A400012323703B70072333706749674817F0D0
:10E7B400F5FA8046002839D101462022644817F032
:10E7C4007DFB20224146634817F078FB2022414616
:10E7D400614817F073FB4FF4807241465B4817F0B1
:10E7E4006DFB5E495A4817F0F5FA5D49594817F030
:10E7F400F1FA4649584817F0EDFA45224146414896
:10E8040017F05CFB57493F4817F0E4FA20224146D1
:10E81400554817F053FB3B49534817F0DBFA0123E3
:10E8240023703B7000F0FCFF052333704F494748C9
:10E8340017F0B4FA8046002839D101462022444812
:10E8440017F03CFB20224146424817F037FB2022B8
:10E854004146414817F032FB4FF4807241463B4831
:10E8640017F02CFB42493A4817F0B4FA41493948A9
:10E8740017F0B0FA2849384817F0ACFA4522414657
:10E88400244817F01BFB3749224817F0A3FA20222B
:10E894004146354817F012FB1E49334817F09AFADF
:10E8A400012323703B7000F0BBFF05233370324912
:10E8B400264817F073FA8046002840F08A80014603
:10E8C4002022234817F0FAFA20224146214817F063
:10E8D400F5FA20224146204817F0F0FA4FF48072EE
:10E8E40041461A4817F0EAFA4EE000BF242C0220F1
:10E8F40051830220F3230220B1A80200DF23022067
:10E90400B5A8020045370220BBA802000037022048
:10E91400C3A802009E38022059380220F739022089
:10E92400B2390220503B02200B3B0220A93C0220BA
:10E93400643C02200F240220C9A80200D8A80200C7
:10E94400440102204C01022031360220DF22022041
:10E954005E2202207E2202209E220220763602209F
:10E96400BB360220FDA80200BE2202208A37022004
:10E97400CF37022014380220E3380220DE2202209E
:10E9840052830220480102209B499C4817F022FA36
:10E994009B499C4817F01EFA9B499C4817F01AFAA9
:10E9A400452241469A4817F089FA9A49984817F03F
:10E9B40011FA20224146984817F080FA9449964863
:10E9C40017F008FA012323703B7000F029FF052398
:10E9D40033709249924817F0E1F98046002839D102
:10E9E40001462022854817F069FA202241468548CD
:10E9F40017F064FA20224146844817F05FFA4FF476
:10EA040080724146864817F059FA86497B4817F0C8
:10EA1400E1F985497B4817F0DDF984497B4817F013
:10EA2400D9F945224146824817F048FA7949804885
:10EA340017F0D0F920224146774817F03FFA7C4975
:10EA4400754817F0C7F9012323703B7000F0E8FE06
:10EA5400052333707749724817F0A0F980460028DF
:10EA64007FF48DAC01462022644817F027FA202257
:10EA74004146644817F022FA20224146634817F0C1
:10EA84001DFA4FF480724146654817F017FA6A4937
:10EA94005A4817F09FF969495A4817F09BF9684991
:10EAA4005A4817F097F945224146664817F006FA86
:10EAB4005849644817F08EF920224146564817F009
:10EAC400FDF96049544817F085F9012323703B7020
:10EAD40000F0A6FE0523337051E45B4F3B7843B14D
:10EAE40000235A483B70FEF73DFEFFF7E7FAFFF7B5
:10EAF40015FB2378D3B10023237000F037F9544A6F
:10EB04008C21012000F0FCF93C4A6E21012000F028
:10EB140073FA3C4A3C21012000F0F2F901203B4AFF
:10EB24001E2100F0EDF94B4817F007F8FFF7D6FA6D
:10EB3400FFF704FB484B1B78002B7FF420AC012328
:10EB440023703B700623C6E73F4F3B782BB100236D
:10EB54003B70FFF7B3FAFFF7E1FA237883B10023A0
:10EB6400237000F003F93D4A7021012000F0C8F938
:10EB740002203B4A522100F0C3F93A4816F0DDFF67
:10EB8400FFF7ACFAFFF7DAFA334B1B78002B7FF46C
:10EB9400F6AB012323703B7003239CE72378B3B1C6
:10EBA4000027277000F0E2F82F4B304A7021022032
:10EBB4001F7000F0A5F92E4A5221022000F0A0F99E
:10EBC4002C4816F0BAFFFFF779FAFFF7A7FA1E4BA5
:10EBD4001A7822B1002228481A70FEF7C3FDFFF705
:10EBE4007DFAFFF7ABFA1C4B1B78002B7FF4C7AB05
:10EBF4000123237002236EE7283902205E220220BB
:10EC04006D3902207E220220B23902209E22022087
:10EC1400F7390220FDA80200BE2202203C3A02205D
:10EC2400DF220220813A0220C63A02200B3B022056
:10EC3400503B0220953B0220DA3B02201F3C02207D
:10EC4400643C0220A93C0220242C0220F9A80200E2
:10EC540005A902000BA90200528302202EA902007A
:10EC640034A9020038A90200DE22022056A90200BB
:10EC74005AA902005FA902007FA90200034B1A7877
:10EC8400002A14BF01204020187070472736022044
:10EC940008B5064812F0A4FF054B186028B9BDE872
:10ECA40008400249034816F048BF08BD00B00200FE
:10ECB4003401022006B0020010B51C4812F090FF87
:10ECC4001B4C0021206016F04EFB1E21206816F01C
:10ECD4004AFB1D21206816F046FB01221D212068F5
:10ECE40016F037FB00222068114616F032FB012291
:10ECF4001E21206816F02DFB0A2014F065FE002268
:10ED04001D21206816F025FB00222068114616F00C
:10ED140020FB00221E21206816F01BFB0A2014F0A1
:10ED240053FE4022034B1A7010BD00BFA4A702007B
:10ED3400300102202736022010B586B006AB03F856
:10ED4400140D0293012302AACDE904230393054B76
:10ED540004AA1868044943681C680023A04706B045
:10ED640010BD00BF34010220687B020010B50C4CBA
:10ED740001221D21206816F0ECFA0A4B187840F0A5
:10ED84002000FFF7D9FF0020FFF7D6FFFFF776FF3B
:10ED940020680022BDE810401D2116F0DABA00BF39
:10EDA400300102202736022070B50646144C012299
:10EDB4000D4620681D2116F0CCFA124B187840F04D
:10EDC4008000FFF7B9FFFFF759FF70B216F0D5FACC
:10EDD400FFF7B2FF05F1120615F8010BFFF7ACFFC0
:10EDE400AE42F9D10020FFF7A7FF0020FFF7A4FFF0
:10EDF40020680022BDE870401D2116F0AABA00BFA9
:10EE040030010220273602202DE9F04194B0144647
:10EE140002AA80460D461746334B03F1100C1646E2
:10EE240018685968083303C663453246F7D1198810
:10EE34009B783180B370112200210DF11B0017F073
:10EE44003DF8002120220CA80B9117F037F820463A
:10EE540016F09CFF1228EDB20FD901230820234A93
:10EE6400CDE90030224928460C2316F0A9FA21489E
:10EE740016F063FE14B0BDE8F081204616F086FF5C
:10EE8400112825D8424639460BA816F0AEFF204675
:10EE940016F07CFF214602460BA816F0A6FF0BA82D
:10EEA40016F074FF3946C0F112020BA816F09DFF4C
:10EEB4000BAA2146104816F040FE01230821CDE993
:10EEC40000310C23094A0BA9284616F079FAD1E738
:10EED4000A4816F032FE012308222146CDE9003209
:10EEE4000C23024AF0E700BF307B0200EEB502209B
:10EEF400B2AF0200C5AF0200D5AF0200EDAF020011
:10EF04002DE9F04194B0144602AA80460D461746F6
:10EF1400334B03F1100C164618685968083303C6BE
:10EF240063453246F7D119889B783180B37011223A
:10EF340000210DF11B0016F0C1FF002120220CA8B6
:10EF44000B9116F0BBFF204616F020FF0928EDB206
:10EF54000FD902231020234ACDE900302249284644
:10EF6400202316F02DFA214816F0E7FD14B0BDE871
:10EF7400F081204616F00AFF082825D84246394673
:10EF84000BA816F032FF204616F000FF2146024679
:10EF94000BA816F02AFF0BA816F0F8FE3946C0F1AC
:10EFA40009020BA816F021FF0BAA2146104816F0FF
:10EFB400C4FD02231021CDE900312023094A0BA905
:10EFC400284616F0FDF9D1E70A4816F0B6FD0223EB
:10EFD40010222146CDE900322023024AF0E700BF87
:10EFE400307B0200568302208FAF0200C5AF0200BF
:10EFF40099AF0200EDAF02002DE9F04194B0144640
:10F0040002AA80460D461746334B03F1100C1646F0
:10F0140018685968083303C663453246F7D119881E
:10F024009B783180B370112200210DF11B0016F082
:10F0340045FF002120220CA80B9116F03FFF20462B
:10F0440016F0A4FE0528EDB20FD904231C20234A90
:10F05400CDE9003022492846402316F0B1F9214871
:10F0640016F06BFD14B0BDE8F081204616F08EFE5C
:10F07400042825D8424639460BA816F0B6FE204689
:10F0840016F084FE214602460BA816F0AEFE0BA82D
:10F0940016F07CFE3946C0F109020BA816F0A5FE55
:10F0A4000BAA2146104816F048FD04231C21CDE983
:10F0B40000314023094A0BA9284616F081F9D1E70B
:10F0C4000A4816F03AFD04231C222146CDE90032F9
:10F0D4004023024AF0E700BF307B0200169A022068
:10F0E40071AF0200C5AF020077AF0200EDAF0200BE
:10F0F40010B5044608220C4916F0A7F92046092247
:10F104000A4916F0A2F920460D22094916F09DF984
:10F1140020460D22074916F098F92046BDE8104014
:10F124000B22054916F091B91FB0020028B0020065
:10F1340032B0020040B002004EB0020010B52648C2
:10F1440012F04EFD254C00220621206016F098F99D
:10F1540000220721206816F093F901221B21206860
:10F1640016F08EF901221521206816F089F9012282
:10F174001021206816F084F901221121206816F06C
:10F184007FF901221321206816F07AF901220C215B
:10F19400206816F075F901221B21206816F066F923
:10F1A40001221521206816F061F90122102120683E
:10F1B40016F05CF901221121206816F057F900229B
:10F1C4001321206816F052F920680022BDE810408F
:10F1D4000C2116F04BB900BFA4A70200380102208D
:10F1E400024B02460C21186816F040B9380102207F
:10F1F4002DE9F0431C4885B012F0F2FC43681B4D26
:10F204001B680221286098474FF4FA7014F0DCFB65
:10F21400174816F092FC2B682BB9164816F08DFC93
:10F2240005B0BDE8F08304240126DFF84C800DF11D
:10F234000307022328688DF80C3043688DF80360B7
:10F24400D3F80490CDE90176A3B2012201A9C847FD
:10F2540010F0FF0F03D12146404616F06EFC013436
:10F26400782CE6D1DCE700BFABA702003C0102200A
:10F274005AB0020073B0020092B0020030B50546E5
:10F2840085B00C480C4612F0ABFC0B4ACDE9015496
:10F29400106002228DF80C20436801225C6801A9E9
:10F2A4005523A047054B1878003018BF012005B03E
:10F2B40030BD00BFABA70200400102202B36022064
:10F2C4007FB500231646ADF80030FFF7D7FF0E4D8B
:10F2D400C4B22C70A4B90D4B0296186803238DF8A0
:10F2E4000C304368CDF804D05E680122552301A98F
:10F2F400B047C0B2287028B9BDF8000004B070BD92
:10F304000120FBE72046F9E72B36022040010220CA
:10F31400022201210148FFF7D3BF00BF3CBA0220FB
:10F32400022201210148FFF7CBBF00BF38BA0220F7
:10F33400012202481146FFF7C3BF00BF3ABA0220B8
:10F34400012202481146FFF7BBBF00BF3BBA0220AF
:10F35400012202481146FFF7B3BF00BF32BA0220B0
:10F36400012202481146FFF7ABBF00BF39BA0220A1
:10F3740007B5084B02211B7801A88DF8043000233F
:10F384008DF80530FFF77AFF003018BF012003B075
:10F394005DF804FB35BA022007B5084B8DF805006B
:10F3A4001B78022101A88DF80430FFF767FF0030B5
:10F3B40018BF012003B05DF804FB00BF36BA022079
:10F3C400012208B511460248FFF77AFFC0B208BD12
:10F3D40034BA022007B5084B8DF805101B780221BA
:10F3E40018448DF8040001A8FFF748FF003018BF47
:10F3F400012003B05DF804FB33BA022030B50121CB
:10F404008DB01148FFF73AFF104BC0B2187004AC2E
:10F4140068B90F4B019418682023029303238DF8D5
:10F424000C30436801225D6801A95523A8470023D5
:10F434001846E25C01331044202BC0B2F9D1C0431A
:10F44400C0B20DB030BD00BF33BA02202B3602204B
:10F454004001022007B5084B8DF805001B780221F6
:10F4640001A88DF80430FFF709FF003018BF012010
:10F4740003B05DF804FB00BF34BA0220022201216C
:10F484000148FFF71DBF00BF37BA0220014816F03C
:10F494000DB800BF2836022038B5E8B116F030F8B0
:10F4A4000446B0B90024204638BD012014F08CFA7B
:10F4B40015F1FF35F6D3FFF7E1FFC306F5D4002DB0
:10F4C400F0D0084B1D78002DEDD016F022F82C4614
:10F4D400E9E74FF4FA65EBE74320BDE8384015F05F
:10F4E400FCBF00BF2936022010B510B10122114B18
:10F4F4001A7016F008F820B101220F4B1A7016F09A
:10F5040010F8132015F0E9FF80B9002010BD012088
:10F5140014F05AFA14F1FF34F7D3FFF7B7FFC30618
:10F52400F5D5002CD4BF00200120EFE74FF4FA6496
:10F53400F0E700BF2A36022029360220202B2DE9CD
:10F54400F84304460D4690461F4602D90020BDE804
:10F55400F883184B1878994608B9FFF7C5FFFFF7E9
:10F5640007FF0028F2D02046FFF716FF06460028C2
:10F57400ECD06809FFF710FF0024FFF73FFFFFF707
:10F584001FFF05F01F05BC420CDBFFF737FFFFF739
:10F5940061FF99F800000028D9D10120FFF77CFF12
:10F5A4003046D4E7281918F80410C0B2FFF712FF48
:10F5B4000134E8E72A3602202DE9F04705460C22FB
:10F5C40000217A4816F07AFC05220021784816F0CA
:10F5D40075FC45220021774816F070FC4522002175
:10F5E400754816F06BFC45220021744816F066FC41
:10F5F40045220021724816F061FC45220021714821
:10F6040016F05CFC452200216F4816F057FC452299
:10F6140000216E4816F052FC452200216C4816F079
:10F624004DFC452200216B4816F048FC4522002180
:10F63400694816F043FC45220021684816F03EFC58
:10F6440045220021664816F039FC45220021654810
:10F6540016F034FC45220021634816F02FFC4522A5
:10F664000021624816F02AFC45220021604816F069
:10F6740025FC452200215F4816F020FC452200218C
:10F684005D4816F01BFC452200215C4816F016FC70
:10F69400452200215A4816F011FC45220021594800
:10F6A40016F00CFC45220021574816F007FC4522B1
:10F6B4000021564816F002FC45220021544816F059
:10F6C400FDFB45220021534816F0F8FB2E46002787
:10F6D400DFF84881DFF83C91DFF834A1284616F0C2
:10F6E40055FB731B0138984201DA00205BE016F8E1
:10F6F400013B3E2B02D101370024EFE77A1E1B2A7F
:10F704004DD8DFE802F00E121416181A1C1E20221F
:10F714002426282A2C2E30323436383A3C3E4042B5
:10F724004548224A13550134D8E7214AFAE7214AC9
:10F73400F8E7214AF6E7214AF4E7214AF2E7214AA9
:10F74400F0E7214AEEE7214AECE7214AEAE7214AB9
:10F75400E8E7214AE6E7214AE4E7214AE2E7214AC9
:10F76400E0E7214ADEE7214ADCE7214ADAE7214AD9
:10F77400D8E7214AD6E7214AD4E7214AD2E7214AE9
:10F78400D0E7214ACEE7214ACCE70AF80430CAE799
:10F7940009F80430C7E7404616F0CFF99EE71E4843
:10F7A40016F0CBF90120BDE8F08700BFEE3C022043
:10F7B4002C3602203136022076360220BB36022057
:10F7C40000370220453702208A370220CF37022033
:10F7D40014380220593802209E380220E3380220CF
:10F7E400283902206D390220B2390220F73902206B
:10F7F4003C3A0220813A0220C63A02200B3B022006
:10F80400503B0220953B0220DA3B02201F3C0220A1
:10F81400643C0220A93C0220C3B002009FB0020055
:10F82400002310B5474C48494848236016F0B6FAFF
:10F83400B0B14549464816F0B1FA88B14249454845
:10F8440016F0ACFA60B14049434816F0A7FA38B153
:10F854004249434816F0A2FA10B9236801332360E1
:10F864003949404816F09AFAB0B137493E4816F083
:10F8740095FA88B134493D4816F090FA60B132499E
:10F884003B4816F08BFA38B134493A4816F086FAF8
:10F8940010B92368013323602B49374816F07EFAE8
:10F8A400B0B12949354816F079FA88B12649344867
:10F8B40016F074FA60B12449324816F06FFA38B180
:10F8C4002649314816F06AFA10B9236801332360D7
:10F8D4001D492E4816F062FAB0B11B492C4816F0A7
:10F8E4005DFA88B118492B4816F058FA60B11649E8
:10F8F400294816F053FA38B11849284816F04EFA38
:10F9040010B92368013323600F49254816F046FADD
:10F91400B0B10D49234816F041FA88B10A4922488A
:10F9240016F03CFA60B10849204816F037FA38B1AD
:10F934000A491F4816F032FA10B9236801332360CC
:10F94400002010BD48010220C3A802003136022065
:10F9540076360220BB36022000370220BBA8020004
:10F96400453702208A370220CF370220143802207C
:10F97400593802209E380220E33802202839022018
:10F984006D390220B2390220F73902203C3A0220B4
:10F99400813A0220C63A02200B3B0220503B02204F
:10F9A400953B0220DA3B02201F3C0220643C0220EB
:10F9B400A93C02202DE9F04F87B0837A00AF9B0069
:10F9C4000A3303F4FF63ADEB030D05464368684651
:10F9D400033323F00303036004460120C7F80CD06B
:10F9E400814221D2287C0E4610F00100904601D0BD
:10F9F40015F0F0FD0446002E1FDAC023514A524987
:10FA0400524816F09AF8524816F097F8C0214D481B
:10FA140016F0A0F84FF0FF342146287C15F0E3FDE2
:10FA24001C37BD46BDE8F08F236801309B080333C3
:10FA340023F0030344F8043FD2E7FB68298953F811
:10FA44002630D5F800B003FB08FABB60013B03EB9A
:10FA54000A027B606B680BEB0A094B439A420CD396
:10FA64003C49A423374A394816F067F83A4816F057
:10FA740064F8A421334816F06DF84246314628460E
:10FA840015F08BFD0C23EA68214603FB06231A1D9F
:10FA94004BF80A209A68C9F804209A68C2F80090C2
:10FAA400C3F80890287C15F09EFD287C10F0010016
:10FAB40001D015F08FFD0446002EADD007F11403DC
:10FAC40042463146284615F052FD042390FBF3F3D9
:10FAD4007A699B001068D84000F00F000F289BD172
:10FAE4004FF00009CB4628F003033B603B68B5F8B0
:10FAF40008C003EB0902BB68696803FB02FA01FB57
:10FB04000CF17B680AEB0300884211D23146284687
:10FB140015F051FD2A6802EB0A0152F80A004B68FD
:10FB2400186052F80A00436042F80AB0C1F804B001
:10FB340009F10109B9F1040FD8D1013E98FBF9F894
:10FB440059E700BFE6B0020099C30200AAAB020065
:10FB540029B102000CB1020026B102000B68013386
:10FB64000B60014B1B681847408202202DE9F04FBF
:10FB740085B00E9C9B46012CB8BF0124012B0CBF01
:10FB84003023202315468046894601260A27002271
:10FB9400DFF870A0019402930AF101040AB9AA459E
:10FBA4001ED2B5FBF4F049463030C047012201367D
:10FBB400B5FBF4F10A23013F012F04FB1155BAFBF5
:10FBC400F3FAE9D1494605F13000C047BBF1030F10
:10FBD40003D1019B9C1B002C0FDC05B0BDE8F08F0A
:10FBE400019BBB42E4DBBBF1020FE1D8494602981A
:10FBF40003920136C047039ADAE749462020C047FA
:10FC0400013CE8E7FFC99A3B014B1860704700BF0D
:10FC140040820220002313B502AC44F8043D02469E
:10FC24000B460348214615F02CFE02B010BD00BF60
:10FC340061FB00004FF02002EFF3118382F311887F
:10FC4400BFF36F8F0121044AC2F8401583F3118872
:10FC5400BFF36F8F002070470090034020B1034B27
:10FC6400800143F001031847704700BF607B020026
:10FC7400074AD2F8883043F47003C2F88830BFF3DF
:10FC84004F8FBFF36F8F034B034A1A60704700BF57
:10FC940000ED00E0448202200090D00310B5074C30
:10FCA4000749224607484FF4E27315F046FF204601
:10FCB400BDE810404FF4E27115F04CBF48B10200AA
:10FCC40080B10200AAAB02001F2810B5044601D976
:10FCD400FFF7E4FF012303FA04F4014BDC6010BDD9
:10FCE400002584401F2810B5044601D9FFF7D6FF2C
:10FCF400012303FA04F4014B9C6010BD00258440E9
:10FD04002DE9F74F8146924698460C4649B95D491C
:10FD14005D48A4235D4A15F010FFA4215B4815F04B
:10FD240019FF242399F80450594E6B43F218117F9C
:10FD3400002940F0A580D9F8007046F803A0237B81
:10FD4400C2F80480012B207800F28880FFF7BCFF02
:10FD540094F80080B8F11F0F01D9FFF79FFF01222B
:10FD64004C4B08F1800843F8282094F801809A4607
:10FD7400B8F1FF0F75D04046FFF7A6FFB8F11F0F8B
:10FD8400C34601D9FFF78AFF032308F180084AF824
:10FD94002830A378FF2B67D01F2B984603D90193F3
:10FDA400FFF77CFF019B042280334AF8232024239D
:10FDB40003FB0563A27883F82020E078FF28D87736
:10FDC40014D02379002B52D0FFF77EFFE3781F2B4A
:10FDD40003D90193FFF762FF019B032280334AF8A2
:10FDE4002320242303FB056322799A772378227B3B
:10FDF400C7F80835A368C7F80CB5C7F81085C7F865
:10FE04002435637B003318BF0123022A32D0032A2E
:10FE140033D0012A01D143F00203C7F85435A37942
:10FE2400C7F8C03524236B43F35813B14022C7F8F5
:10FE340004230722C7F800252BB1D9F8000040F3AA
:10FE4400073001F037FA242303FB056500236B77A1
:10FE5400012311482B7703B0BDE8F08FFFF742FF71
:10FE640076E74FF0FF3B94E74FF0FF389FE7FFF74B
:10FE740039FFABE743F00403CFE743F00603CCE7D5
:10FE84000648E8E7DDB10200AAAB02009CB102001B
:10FE940050010220002584400000AD0B0500AD0B8D
:10FEA40024232DE9F041634E0579804603FB056365
:10FEB4001B7F0C4617465BB95F49604840F2292313
:10FEC4005F4A15F03AFE40F229215D4815F042FEE2
:10FED40023686BB963685BB15A49584840F22A23D6
:10FEE400574A15F02AFE40F22A21554815F032FEF1
:10FEF400A3686BB9E3685BB15349504840F22B23C4
:10FF04004F4A15F01AFE40F22B214D4815F022FEFF
:10FF140098F804303BB9E368B3F5803F03D26368D3
:10FF2400B3F5803F0BD34949444840F22E23444A59
:10FF340015F003FE40F22E21414815F00BFE242358
:10FF44006B43F218517F002971D1F35823B117F094
:10FF5400140F04BF012353774FF0240C94E80F00CF
:10FF64000CFB056C0CF10C0E8EE80F009CF81F00C6
:10FF7400FF2804D09CF81E30BBB1FFF7B3FE216804
:10FF840021B101F06043B3F1005F06D1A2687AB1F8
:10FF940002F06043B3F1005F0AD0242303FB05653C
:10FFA40000232B486B77BDE8F081FFF78DFEE6E771
:10FFB400D8F800306068C3F84415C3F84805E16810
:10FFC400C3F834250022C3F83815C3F8182117F0F4
:10FFD400010218BF0122C3F8502517F0020218BF0E
:10FFE4000122C3F840253A075CBF01221A6124228A
:0CFFF4006A43B25892B9D3F81821002AD1
:020000021000EC
:10000000FBD0242303FB0565E87FFF2803D0AB7FEB
:100010001BB1FFF75BFE1048C7E7FFF765FEFAE785
:10002000402217F0040F14BFC3F80823C3F80423B9
:10003000F1E70A48B9E700BF50010220E6B102002B
:10004000AAAB02009CB1020012B2020059B2020037
:10005000A0B202000A00AD0B0000AD0B0B00AD0B0F
:10006000154B10B5D3F8182122B30022134CC3F856
:10007000182123685BB91249124840F29323124AAF
:1000800015F05DFD40F293210F4815F065FDE07F0E
:10009000FF2803D0A37F53B1FFF718FE00230B48BE
:1000A00063772372D4E90031BDE810401847FFF7A9
:1000B0001BFEF3E710BD00BF00B00040500102205E
:1000C0008EB10200AAAB02009CB1020058010220CE
:1000D0001F2808B50BD9074907484FF4E273074AB0
:1000E00015F02DFD4FF4E271044815F035FD04487C
:1000F00008BD00BF80B10200AAAB020048B10200F7
:10010000002584402DE9F0478146924698460C46EA
:1001100049B92E492E48A0232E4A15F010FDA021E2
:100120002C4815F019FDD4E900239A4209D12A4937
:100130002748A123274A15F002FDA121254815F0E3
:100140000BFD342699F80470244D7E43AB1993F8C7
:100150002D20CABB9A60C3F8048083F8302083F84E
:100160002F20D4F80080627B45F806A083F8322067
:100170004046FFF7ADFF40F20C6A08F1800840F8F6
:1001800028A0D4F804804046FFF7A2FFD4E900235A
:1001900008F1800840F828A0D9F80000C0F8082528
:1001A000C0F80C35A368C0F82435AB591BB140F337
:1001B000073001F081F8342303FB07550123084879
:1001C00085F82D30BDE8F0870648FBE7DDB1020079
:1001D000AAAB020069B30200AAB3020074010220B4
:1001E0000000AD0B0500AD0B342270B50F4D047946
:1001F000064602FB045292F82D20012A0BD00C492E
:100200000C484FF484730C4A15F099FC4FF4847138
:10021000094815F0A1FC06223368C3F800253423F1
:1002200003FB0454022384F82D3070BD74010220B6
:100230003FB30200AAAB020069B30200342270B5DA
:10024000144D0479064602FB045292F82D205AB947
:100250001149124840F21313114A15F070FC40F294
:1002600013110F4815F078FC3422002102FB0454CE
:1002700033680C4AA160C3F80823D3F8002222F4A3
:10028000BC52C3F80022C3F80015012384F82D30B6
:1002900070BD00BF74010220E6B10200AAAB0200EB
:1002A00069B3020002029C012DE9F047037904467C
:1002B0000D4690463BB94B68B3F5803F03D28B683F
:1002C000B3F5803F0BD3BC49BC4840F2E713BC4AAE
:1002D00015F035FC40F2E711B94815F03DFC342328
:1002E0002779B84E7B43F35873B92B78022B0BD187
:1002F000B549B24840F2ED13B14A15F020FC40F286
:10030000ED11AF4815F028FC34237B43F35873B943
:100310002B78032B0BD1AD49A8484FF4F773A84AAB
:1003200015F00DFC4FF4F771A54815F015FCEB68BE
:1003300003F06043B3F1005F02D0A548BDE8F08749
:100340004FF0340C0CFB076CA24B2468C4F8083344
:100350009CF82F3003F0FF0A2BB1DCF808309E48E0
:10036000C4F80433EAE718F0140F0CBF012300238C
:10037000A9468CF82F300CF10C0EB9E80F00AEE84E
:100380000F00D9F80030CEF80030C8F300138CF815
:1003900030306B78C4F8883518F0010318BF01239A
:1003A000C4F804A1C4F824A1C4F8503518F002031D
:1003B00018BF0123C4F840352B78032B00F2EA80E4
:1003C000DFE813F0AB00D2008C00040018F0100F2F
:1003D0000BD0824979484FF4B473794A15F0AFFBDA
:1003E0004FF4B471764815F0B7FB18F0080F0BD036
:1003F0007B49724840F26913714A15F0A0FB40F244
:1004000069116F4815F0A8FB18F0040F0BD075495F
:100410006A484FF4B5736A4A15F091FB4FF4B57111
:10042000674815F099FB2A6902F06043B3F1005F59
:1004300083D14FF48073E968C4F800326B68C4F864
:100440004415C4F8483501210023C4F85031C4F8DC
:100450006031C4F848312162A160D4F850110029FC
:10046000FBD0C4F85031AB68C4F84425C4F8483513
:10047000342303FB07635C4A9A604FF482730822BB
:100480005A4818F0080F04D1297803291CBF01210C
:10049000A15034227A43B118B258002A7FD10121E9
:1004A00023441A68002A00F0AB80342202FB07665E
:1004B0000022D4F8C434C4F8C43486F82F20002BAA
:1004C0003FF43CAF4A4A13F0020F4A4808BF1046B7
:1004D00013F0040F484B18BF18462FE76B68EA6803
:1004E000C4F84425C4F848352B6903F06042B2F1E2
:1004F000005F7FF422AFAA68C4F834354FF4845308
:10050000C4F83825C4F80032342340F2022203FB39
:1005100007639A6001232362AFE76B68EA6818F00B
:10052000200FC4F84425C4F848354FF034030FD0E9
:100530004FF4807203FB0763C4F800222A4A9A60D2
:100540000023C4F848314FF4A4730122226296E7D5
:100550004FF40072C4F8002240F2022203FB07634A
:100560009A604FF48273F0E76B68EA68C4F8342548
:10057000C4F838354FF48053C4F80032342340F2C5
:10058000022203FB07639A600123002223624FF4D7
:10059000827375E74FF482730822184871E718F0E8
:1005A000040F1CBF4FF400738B60342303FB0766FA
:1005B000B368C4F80433C1E6C9B30200AAAB0200B1
:1005C00069B302007401022074B40200C4B40200D2
:1005D0000A00AD0B02029C010B00AD0B14B502002A
:1005E0002AB5020040B50200000204000000AD0B75
:1005F0000100AD0B0100AE0B0200AE0B0400AD0B11
:10060000D4F82451002D3FF44CAFC4F824214FF40A
:1006100082732162616143E7F0B54C4C87B0236877
:100620005BB94B494B484FF40F734B4A15F087FAAF
:100630004FF40F71484815F08FFA484BD3F8242136
:100640001D4692B10022C3F82421D3F8042162B9D7
:10065000A268C3F808230222A260A268C3F8042398
:1006600001221A625A6107B0F0BDD5F80431002B9F
:100670003FD000233A4FC5F8043101AE0FCF0FC66B
:100680003B6894F82E10336079B1237B012B0CBFAB
:10069000D5F83C25D5F84C25022B304B02920CBFE7
:1006A000D3F83C35D3F84C35039300222B4B94F808
:1006B0003000C3F86021C3F85C2100B129B1C3F850
:1006C0000022A260274AC3F80823244AD2F8C4347F
:1006D000C2F8C4349A0733D501238DF8003094F85A
:1006E00030300BB984F82F30D4E900316846984790
:1006F000B9E7C5F84831237B83B9194F01AE0FCF55
:100700000FC63B68336094F83030002BDDD1C5F85C
:100710000032A360134BC5F80833D6E74FF40073DB
:10072000C5F8003240F20223A36003F1CE73C5F88E
:100730000833A368C5F804330123AB602B6292E74A
:1007400013F0040318BF0223C7E700BF740102209F
:100750008EB10200AAAB020069B3020000A0004003
:100760008001022002029C0138B5054648B90C49B7
:100770000C4811230C4A15F0E2F911210A4815F032
:10078000EBF90A4C22684AB1094906481223064A85
:1007900015F0D5F91221044815F0DEF9256038BDB1
:1007A000A6AB0200AAAB020056B50200A8010220C7
:1007B00093B5020008B500F0D9FA064BD3E8EF2F45
:1007C00005495118C3E8EC1FBCF1000FF6D11044E5
:1007D00008BD00BFAC0102200DCA9A3B0A2838B5FB
:1007E0000446074D04D128680D2143685B6898478B
:1007F0002868E1B243685B689847204638BD00BF6F
:10080000B001022010B5044C204601F0DFFC204668
:10081000BDE81040FFF7FAB9DD07010008B504484C
:1008200011F0E0F9034B1860FFF7ECFF002008BD62
:1008300075A70200B001022010B54FF02003EFF3BE
:10084000118283F31188BFF36F8F154C237833B96E
:1008500082F31188BFF36F8F6FF0440010BD013B2E
:10086000DBB2237033B182F31188BFF36F8F6FF067
:100870000F00F3E70B4B0121187838B1217082F398
:100880001188BFF36F8F6FF00A00E7E7197082F3EA
:100890001188BFF36F8F044A11601870DEE700BF44
:1008A000FC3C0220FB3C02200450004010B54FF0FD
:1008B0002002EFF3118382F31188BFF36F8F134C83
:1008C000207890B183F31188BFF36F8F104AD2F86C
:1008D0001C34D2F8182403F0030343F48033934309
:1008E00014BF6FF04300002010BD0122227083F37B
:1008F0001188BFF36F8F064BC3F80401C3F81815B6
:100900000221C3F804139A60E0E700BFFA3C02201A
:100910000050004038B5204BD3F80851D3F80423D9
:10092000D3F8000102F00102D3F80443D3F8041114
:100930001DBB78B942BBB1B940F2451317491848FD
:10094000184A15F0FCF8BDE8384040F2451115484A
:1009500015F002B90020C3F800011AB101220E4BB4
:10096000C3F8082341B100220B4BC3F80421A207AE
:1009700002D50222C3F8082338BD0025C3F8085168
:100980000028E7D1002AEDD0D3F80C3403F001138E
:10099000B3F1011FE6D1E1E700500040F5B50200D8
:1009A000AAAB0200B8B502002DE9F0414FF02003D8
:1009B000EFF3118283F31188BFF36F8F304B1878F8
:1009C0001F46441C1C70D8B182F31188BFF36F8F8F
:1009D0003B784BB92B492C4860232C4A15F0AFF8D3
:1009E00060212A4815F0B8F8294BD3F80C3403F0ED
:1009F0000113B3F1011F0CBF00206FF043000CE0A6
:100A0000244D95F80080B8F1000F08D0187082F3DB
:100A10001188BFF36F8F6FF00A00BDE8F0810126E7
:100A20002E7082F31188BFF36F8F194C21B305200C
:100A300000F052FCC4F80081D4F80433C4F8046315
:100A40002660D4F800219AB10022DB0758BF0123A9
:100A5000C4F800214FF0200258BFC4F808330E4BF1
:100A60000520C3F8802100F027FC00232B70AFE79E
:100A700020BF40BF20BFE4E7C4F800112660F4E7C0
:100A8000FC3C0220ADB50200AAAB0200B8B50200E2
:100A900000500040FB3C022000E100E010B5064C95
:100AA000064922460648172315F049F82046BDE8B6
:100AB0001040172115F050B832B6020099C3020059
:100AC000AAAB0200002238B5234BC3F840214FF0F7
:100AD0002003EFF3118583F31188BFF36F8F1F4855
:100AE00013F0FCF860B91E494E231E4A1E4815F04B
:100AF00026F81E4815F023F84E211A4815F02CF858
:100B0000164813F009F91A4A134B1168D3F8043543
:100B100012485B1AC3F30F2423F07F4323F0FF0333
:100B20000B44136013F0E8F860B9124961230D4AD1
:100B30000D4815F004F8104815F001F86121094836
:100B400015F00AF885F31188BFF36F8F2046BDE8D2
:100B5000384013F0E9BB00BF00500140B80102204B
:100B60008EB6020066B60200AAAB0200A3B602006F
:100B7000B4010220B8B60200CFB6020038B51A4858
:100B800011F030F860B3436802211B6898470024D5
:100B90004FF48073154D4FF40012C5F80845C5F8A1
:100BA00040354FF48033C5F80433114B01211C60EC
:100BB000104B1520C3F88021224600F0A1FB152020
:100BC00000F07AFB012320460B4A13602B60D5F816
:100BD000043503F5807323F07F43C5F8403538BDF5
:100BE0004FF0FF30FBE700BF14B602000050014099
:100BF0004051014000E100E0085001404FF6FE7214
:100C0000B0F1FF3F08BF104638B5451E9542A8BF5A
:100C1000154625EAE5754FF02003EFF3118483F3C1
:100C20001188BFF36F8F214813F058F860B920493D
:100C30004E23204A204814F082FF204814F07FFF02
:100C40004E211C4814F088FF184813F065F81C4921
:100C50001C4BD1F804251B68D01A20F07F40FF30D0
:100C600000EB052020F0FF0003449A1A22F07F4297
:100C70001F2A98BF03F5807323F07F43C1F84035E6
:100C80000A4813F039F860B90F496123094A0A4844
:100C900014F055FF0D4814F052FF6121054814F07F
:100CA0005BFF84F31188BFF36F8F38BDB80102205A
:100CB0008EB6020066B60200AAAB0200A3B602001E
:100CC00000500140B4010220B8B60200CFB60200C5
:100CD00038B54FF02003EFF3118583F31188BFF38C
:100CE0006F8F194812F0FAFF60B918494E23184A5D
:100CF000184814F024FF184814F021FF4E2114481E
:100D000014F02AFF104813F007F8144B0E48D3F8DC
:100D10000445134B1B68E41AC4F30F2412F0ECFFD4
:100D200060B9104961230A4A0A4814F008FF0E48C6
:100D300014F005FF6121064814F00EFF85F31188B9
:100D4000BFF36F8F204638BDB80102208EB6020077
:100D500066B60200AAAB0200A3B602000050014032
:100D6000B4010220B8B60200CFB6020038B54FF089
:100D70002003EFF3118583F31188BFF36F8F1A48B7
:100D800012F0ACFF60B919494E23194A194814F002
:100D9000D6FE194814F0D3FE4E21154814F0DCFE9F
:100DA000114812F0B9FF154B0F48D3F80445144B06
:100DB0001B68E41A24F07F441C4412F09DFF60B9C4
:100DC000104961230A4A0B4814F0B9FE0E4814F08A
:100DD000B6FE6121064814F0BFFE85F31188BFF30B
:100DE0006F8F204638BD00BFB80102208EB60200CA
:100DF00066B60200AAAB0200A3B602000050014092
:100E0000B4010220B8B60200CFB6020004488168DF
:100E1000406A884203D003494FF080520A6070470D
:100E20002021022004ED00E029498A684FF02800C3
:100E30001044EFF3098C80E8F01F4FF010001EEA19
:100E4000000F04D0D2F8AC0020F0040007E002F15B
:100E50006C0080EC108AD2F8AC0050F00400C2F8AC
:100E6000AC00202080F31188BFF36F8F194F4FF033
:100E700000664A6A8A603E60506E0023536680F3C3
:100E80001188D2F8AC0010F0040F05D10023E1EE78
:100E9000103A5EF0100E05E02EF0100E02F16C001C
:100EA00090EC108AEFF3148323F0040383F3148887
:100EB000BFF36F8F04B50648806814F071FEBDE87B
:100EC000044002F1280090E8F01F8CF30988704775
:100ED0002021022004ED00E01EF0040F0CBFEFF310
:100EE0000880EFF30980816931F8021C11F0FF01DD
:100EF0000229FFD001B514F048FE01BD01491022BE
:100F00000A60704710ED00E0404080F3118830BF68
:100F1000704700BF404080F311884FF004007146D5
:100F2000014202D0EFF3098001D1EFF3088071464E
:100F300001B500F045F901BD01B572B60B4A106A62
:100F400000281EBF0021116216F042FB62B6EFF3CB
:100F50000580A0F110004FEAC0000549014409C90D
:100F60009847BDE8014003480047000020210220C7
:100F7000147802000D0E0100002320210348C2183E
:100F80000133412B82F80013F9D1704700E100E0F2
:100F9000094A0A49936809685866996608494B687E
:100FA00043F080534B60002383F31188BFF36F8FAE
:100FB0009368986E704700BF2021022064A502004C
:100FC00000ED00E038B51E4C05461E4814F0B7FD94
:100FD000A36AD90402D51C4814F0B1FDA36A1A050E
:100FE00002D51A4814F0ABFDA36A9B050ED518482C
:100FF00014F0A5FDA16BA36A180407D5154814F0D9
:101000009EFD1DB1A36A23F40043A3620C4CA36AA6
:10101000590502D5104814F092FDA36ADA0509D5E6
:101020000E4814F08CFD064A0020936A43F47F4377
:10103000936238BDA36A9B04F5D50948F1E700BF68
:1010400000ED00E0E2B60200F9B602000BB70200C4
:101050001FB7020039B702004FB702006BB702009A
:1010600084B7020010B51C4C1C4814F068FDA36A3C
:101070009A0102D51A4814F062FDA36ADB0102D579
:10108000184814F05CFDA36ADC0202D5164814F07F
:1010900056FD114CA36A180302D5144814F04FFDF5
:1010A000A36A590302D5124814F049FDA36A9A03B2
:1010B00002D5104814F043FD074CA36ADB0302D5A8
:1010C0000D4814F03CFDA36A00206FEA03436FEA69
:1010D0001343A36210BD00BF00ED00E0B4B80200EE
:1010E000CDB80200E1B80200FCB8020027B9020046
:1010F00046B902006CB9020087B9020038B5244C29
:101100000546244814F01BFDA36AD90602D52248DF
:1011100014F015FDA36A1A0702D5204814F00FFD3C
:10112000A36A9B070ED51E4814F009FD616BA36AE4
:10113000180607D51B4814F002FD1DB1A36A23F061
:101140008003A362124CA36AD90702D5164814F093
:10115000F6FCA36A9A0602D5144814F0F0FCA36AC0
:10116000DB060ED512494FF49E73124A124814F052
:10117000E6FC124814F0E3FC4FF49E710D4814F0A5
:10118000EBFC034A0020936A43F0FF03936238BDEF
:1011900000ED00E0B4B70200CBB702000BB70200CD
:1011A000FFB7020018B802002FB8020084B702008F
:1011B00099C302004FB80200AAAB02007AB802003D
:1011C00038B52D4B05465C6801F07F43B3F17F4F86
:1011D00005D000202946BDE8384000F023B9C807F3
:1011E000F7D4490602D5254814F0A9FCC4F3080435
:1011F000E21E092A35D8DFE802F0052E302B343400
:10120000343434321E4814F09AFC1B4BDA6A9207CD
:1012100003D51C4814F093FCDBE7DB6A5B00D8D5F0
:10122000194814F08CFC194B1B782BB10120FFF7E7
:1012300065FF0628CED138BD154B1B781BB10120A8
:10124000FFF7C0FEF5E7134B1B889BB2002BC0D005
:10125000FFF708FFEDE70020E9E70020F0E70E4880
:10126000D8E70E480E49A4F110020F2CD8BF014652
:101270000C4814F064FCACE700ED00E0E1B90200BA
:1012800005BA02001DBA02003FBA020028ED00E0D4
:1012900029ED00E02AED00E05FBA0200B3B90200D8
:1012A000C8B9020096BA0200024A536943F010031B
:1012B0005361704700ED00E043B2002B08DB0122D0
:1012C00000F01F0002FA00F0024A5B0942F8230016
:1012D000704700BF00E100E043B2002B0DDB0122AC
:1012E00000F01F0002FA00F05B09044A203342F8C4
:1012F0002300BFF34F8FBFF36F8F704700E100E013
:1013000070B54C1C072C05460E460ED97223104AA8
:101310001049114814F013FC31461048072214F00C
:101320000EFC72210A4814F017FC6BB2002BA8BF08
:1013300003F160434FEA4414B8BF094BE4B2ABBFBA
:1013400003F5614305F00F0583F800435C5570BD5C
:10135000AABA0200DABA0200AAAB0200F5BA020089
:1013600014ED00E008B572B6044B186A18B10022FB
:101370001A6216F02DF962B608BD00BF20210220C6
:101380002DE9F8430B9E05460F2E894690461F46D1
:1013900002D11E4B9F4214D006F110031E2B10D910
:1013A0003F231B4A1B491C4814F0C9FB31461B480C
:1013B0006FF00F030E2214F0C2FB3F21144814F00B
:1013C000CBFB0C9B04223146284616F0AEF90022D6
:1013D00009EB08041249A4F1200323F0070321F0CC
:1013E0000101C5E91322C5E91698996108991F60A2
:1013F0005960099999600A99D9604FF08071D96153
:10140000AB646A66C5F8AC20BDE8F8833D1C0200F9
:101410002ABB020056BB0200AAAB0200DDBB0200E1
:101420001D58020038B504460D4605281AD8DFE8D5
:1014300000F00319191315170D4814F080FB12F072
:10144000F7FAAA6901460B4814F079FB29462046B1
:10145000BDE8384000F018B80748EEE70748ECE769
:101460000748EAE70146074814F069FBE7E700BFD1
:101470000EBC0200ACBC02002EBC020054BC020038
:101480006EBC020089BC0200052810B50CD012F019
:10149000F3FB60B112F0F0FB0C490D4B002808BFC4
:1014A00019460C4814F04BFBFFF72EFDFCE712F039
:1014B000F3FB0028EED1084C0848A16814F03FFB6C
:1014C000A068BDE8104000F00BB800BFE8BC020007
:1014D000ECBC0200FDBC0200202102201DBD020068
:1014E00038B504464FF02003EFF3118583F31188DC
:1014F000BFF36F8F037BDB070CD512492523124AFC
:10150000124814F01CFB124814F019FB25210E4858
:1015100014F022FB204616F0E9F80E4B9B68A3421C
:101520000BD10D4B5A68C2F3080212B92846FFF7D7
:101530002FFD5A6842F080525A602846BDE8384074
:1015400016F093B874BD020042BD0200AAAB0200BF
:10155000A2BD02002021022000ED00E014F003FBF8
:10156000202080F3118808484FF40061401880F370
:101570000988EFF314800221084380F31488BFF335
:101580006F8F00F007F800003861022030BFFFF7CE
:10159000FDBF00BF114A08B5114B22F07F029A60CF
:1015A000BFF34F8FBFF36F8FD3F8882042F4A002B0
:1015B000C3F888204FF04042C3F83422BFF34F8F66
:1015C000BFF36F8F0023E1EE103A10F051FB10F0E3
:1015D00059FBFFF7D1FC10F087FB00BF00C00000F3
:1015E00000ED00E010B50E4B88B002930D4B0E4C91
:1015F00003930E4B08A8049302AB40F81C3D0C4A21
:101600002346012100F034F900230793094B0121FF
:10161000E41A05A80593069400F04EF908B010BD31
:10162000000002200000000000000420060001006D
:10163000000002200000022010B50B680C7A23F095
:101640001F0304F01F021A43CB68640923F01F0331
:10165000044943F0010343EA44038860CA600B6114
:1016600010BD00BF90ED00E02DE9F04F80468946A7
:1016700014460027484D85B04F4507DA58F8273003
:101680005E68C6B31F2E05D86FF01504204605B05E
:10169000BDE8F08FF206F7D1D3F800A01AF01F0FC3
:1016A000F2D1504613F05CFF834606EB0A00013886
:1016B00013F056FF8345E7D11BF1160FE4D0631EEC
:1016C0005B45E1DBC5F808B0E86858F82710C5F8B5
:1016D00008B02E6920F01F00D1E900321A44984268
:1016E00046F01F0602F1FF3A18D1564505D15FFAC0
:1016F0008BF014F05DFA0137BEE7C5F808B0EB686F
:1017000022F01F0203F01F031A43EA60E0B214F054
:101710004FFA10F1160FB7D0441CECE7C5F808B02B
:101720002A69013B23F01F0302F01F0213435645B1
:10173000E0B22B61EBD014F03BFA10F1160FA3D0FE
:10174000C5F808B0EA689DF80830013E62F304036A
:101750008DF808302B699DF808205B0863F3471269
:101760008DF8082058F827200130D2E900321344C0
:10177000009323F01F031E44A6EB0A06C4B226F012
:101780001F060F2C03963FF67FAF20466946FFF7F2
:1017900053FF0134AFE700BF90ED00E00522034B9B
:1017A0005A60BFF34F8FBFF36F8F704790ED00E02B
:1017B000BFF35F8F0022014B5A60704790ED00E04D
:1017C000F8B5214F3E68102E13D940F207131F4A77
:1017D0001F49204814F0B3F9102231461E4814F076
:1017E000AEF91A4840F2071114F0B6F94FF0FF3085
:1017F000F8BD0024FFF7DCFF184D194A2A63A64202
:1018000019D1184B1E70FFF7C9FF2B68C3F30723CC
:10181000102B0ED014494FF494730C4A0D4814F059
:101820008EF9124814F08BF94FF49471074814F0B4
:1018300093F90020DCE77968204601EB0411FFF7FB
:10184000FBFE0134DBE700BF747B020045BE0200F3
:1018500099C30200AAAB02007FBE020090ED00E037
:10186000AAFF4400FD3C0220B3BE020004BF0200F8
:1018700038B50C4C0D462278FFF7F6FE2070163076
:101880000FD1CD23084A0949094814F058F92946CF
:10189000084814F054F9BDE83840CD21024814F04E
:1018A0005BB938BDFD3C022045BE020099C3020071
:1018B000AAAB0200EABD02002DE9F74F0F468046B1
:1018C0000026DFF8C490DFF8C4A02A4CBE4202DB39
:1018D00003B0BDE8F08FD8F804B0BBF1000F45D0DD
:1018E000D8F800301846019313F03AFE019B0546E4
:1018F0000BEB0300013813F033FE1423854203FB86
:1019000006F314D06FF0150249F80320DD231A4ABC
:101910001A491B4814F013F939461A4814F00FF904
:10192000DD21154803B0BDE8F04F14F015B915F1ED
:10193000160F49F80350E9D09AF80020AA42E5DDD5
:10194000A5604B44A560E068197B60F3040119733E
:101950002169187B490861F347101873E26822F087
:101960001F025A60226922F01F021A61013608F133
:101970000C08ABE790ED00E045BE020099C3020001
:10198000AAAB020016BE0200BC010220FD3C0220F0
:1019900070B5154B0C461D7806462B460021134AA0
:1019A0000F2B1BDD124B191D1868FFF745FE2A4649
:1019B00021463046FFF758FE163013D1EC230D4A6E
:1019C0000D490E4814F0BBF821460D4814F0B7F845
:1019D000BDE87040EC21074814F0BEB89360116177
:1019E0000133DDE770BD00BFFD3C022090ED00E05B
:1019F000BC01022045BE020099C30200AAAB02004E
:101A0000BDBD02002DE9F04F1F4600239346C9B02B
:101A1000CDE90C0104939BF800000BF1010548B1DE
:101A2000252879D0DDE90C319847013006D14FF0F7
:101A3000FF330493049849B0BDE8F08FAB46049B94
:101A40000133CDE90437059FE5E7232C5DD052D85B
:101A5000002CEFD0202C08BF4FF001095D46AB46AB
:101A60001BF8014BBD48214614F084F90028ECD145
:101A70002A2C59D13A683B1D002A0392BEBF52421C
:101A8000039201221F466C78B8BF069205F1020B43
:101A9000039BC92B28BFC82303932E2C69D19BF825
:101AA00000302A2B62D13D680BF1010B0437C92DA0
:101AB000A8BF4FF0FF359BF800400BF1010B21460A
:101AC000A74814F057F918B19BF800400BF1010B2F
