:10000000301D0020B9160000A73400009510000034
:10001000951000009510000095100000951000004C
:100020009510000095100000951000005910000078
:10003000951000009510000001100000CF33000063
:10004000B9100000B9100000B9100000B91000008C
:10005000B9100000B9100000B9100000B91000007C
:10006000B9100000B9100000B9100000B91000006C
:10007000B9100000B9100000B9100000B91000005C
:10008000B9100000B9100000B9100000B91000004C
:10009000B9100000B9100000B9100000B91000003C
:1000A000B9100000B9100000B9100000B91000002C
:1000B000B9100000B9100000B9100000B91000001C
:1000C000B9100000B9100000B9100000B91000000C
:1000D000B9100000B9100000B9100000B9100000FC
:1000E000B9100000B9100000B9100000B9100000EC
:1000F000B9100000B9100000B9100000B9100000DC
:10010000B9100000B9100000B9100000B9100000CB
:10011000B9100000B9100000B9100000B9100000BB
:10012000B9100000B9100000B9100000B9100000AB
:10013000B9100000B9100000B9100000B91000009B
:04014000B9100000F2
:100144007BB972B90029BEBF00204FF0004106E020
:1001540008BF00281CBF6FF000414FF0FF3000F0D3
:10016400AFB9ADF1080C6DE904CE002909DB002B11
:100174001ADB00F035F8DDF804E0DDE9022304B011
:100184007047404261EB4101002B1BDB00F028F873
:10019400DDF804E0DDE9022304B0404261EB4101F3
:1001A400524263EB43037047524263EB430300F054
:1001B40017F8DDF804E0DDE9022304B0404261EB06
:1001C40041017047524263EB430300F009F8DDF844
:1001D40004E0DDE9022304B0524263EB43037047B9
:1001E4002DE9F0478C46089D04468A46002B4AD1E7
:1001F4008A42174662D9B2FA82F64EB1C6F1200E8F
:1002040001FA06F3B740B44020FA0EFE4EEA030AA0
:100214004FEA1748230C1FFA87F9BAFBF8FE08FBCC
:100224001EAA0EFB09F243EA0A439A420BD9FB18B1
:100234000EF1FF312CBF012000209A4202D9002880
:1002440000F02A818E469A1AA3B2B2FBF8F008FB9A
:10025400102200FB09F943EA0244A14507D93C19DD
:1002640000F1FF3302D2A14500F210811846A4EB3D
:10027400090440EA0E4000211DB1F4400023C5E901
:100284000043BDE8F0878B4208D9002D00F0F280CE
:100294000021C5E9000C0846BDE8F087B3FA83F1F4
:1002A40000294ED16345C0F0E880824240F2E580E7
:1002B4000846002DE5D0C5E9004AE2E702B9FFDEB1
:1002C400B2FA82F6002E40F099808B1A4FEA124E51
:1002D4001FFA82F801214FEA144CB3FBFEF20EFB25
:1002E400123008FB02F94CEA004CE14508D917EB3F
:1002F4000C0C02F1FF3302D2E14500F2CA801A4627
:10030400ACEB090CA3B2BCFBFEF00EFB10CC08FB5B
:1003140000F843EA0C44A0450ED93C1900F1FF3320
:100324002CBF4FF0010C4FF0000CA04503D9BCF1D9
:10033400000F00F0A8801846A4EB080440EA02402D
:100344009AE7C1F120048B4002FA01FE0CFA01F68F
:10035400E24020FA04F72CFA04FC00FA01F81343F3
:100364003E431F0C320C1FFA83F9BCFBF7F007FB6A
:1003740010CC00FB09FA42EA0C4CE24508D913EB15
:100384000C0C00F1FF3202D2E24500F289801046E3
:10039400ACEB0A0CB6B2BCFBF7FA07FB1ACC0AFBAF
:1003A40009F946EA0C42914506D99A180AF1FF3632
:1003B40001D291457AD8B2464AEA0040A2EB09023A
:1003C400A0FB0E67BA42B446B94602D307D1B04582
:1003D40005D2B6EB0E0C67EB030301389946002DEA
:1003E4006BD0B8EB0C0362EB090202FA04F4CB40C5
:1003F400CA4000211C43C5E9004242E7B740C6F1A8
:10040400200201FA06F3B44021FA02FC4FEA174E27
:1004140020FA02F21FFA87F8BCFBFEF11A430EFB26
:1004240011CC01FB08F0130C43EA0C4C604507D9CE
:1004340017EB0C0C01F1FF3301D2604533D8194698
:10044400ACEB000C92B2BCFBFEF00EFB10CC00FB3C
:1004540008F342EA0C4C634507D917EB0C0C00F186
:10046400FF3201D2634525D81046ACEB030340EAC2
:10047400014130E72946284603E7841A6CEB03035D
:1004840001209A4615E702383C4455E702383C44BB
:10049400EDE6023ABC4433E7AEF1020E3B44D2E649
:1004A40002389C4474E70239BC44C9E7AAF1020A41
:1004B4001A4481E70238BC44D7E72946E1E600BF85
:1004C400704700BF2DE9E04F2746A046A146A2464B
:1004D400A346A4462DED108B4FF0000545EC185BA8
:1004E40045EC195A45EC1A5A45EC1B5A45EC1C5A72
:1004F40045EC1D5A45EC1E5A45EC1F5AF1EE105AB4
:100504004FF66076C0F6FF763540E1EE105A84F37C
:10051400008825462646A447BDEC108BBDE8E08F35
:1005240082680C4B9A60036883F38888436883F37A
:100534008988027B02F00101EFF3948323F0030323
:10054400920748BF43F0020309B143F0010383F368
:100554009488704700ED02E0084AD36848B123F458
:1005640000531B041B0C43F0BF6343F40033D360FC
:1005740070479BB243F40053F5E700BF00ED00E081
:10058400084AD36840B19BB243F4804343F0BF634D
:1005940043F40033D360704723F480431B041B0CE3
:1005A400F4E700BF00ED00E0084AD36840B19BB215
:1005B40043F0080343F0BF6343F40033D360704750
:1005C40023F008031B041B0CF4E700BF00ED00E05C
:1005D400034AD2F88C3043F44063C2F88C3070473D
:1005E40000ED00E0084B1A6818B142F001021A60ED
:1005F400704722F001021A601A6811B142F0020237
:10060400F5E722F00202F2E7D0ED00E00B680133D7
:100614000B60014B1B681847702600202DE9F04F32
:1006240085B00E9C9B46012CB8BF0124012B0CBF46
:100634003023202315468046894601260A270022B6
:10064400DFF870A0019402930AF101040AB9AA45E3
:100654001ED2B5FBF4F049463030C04701220136C2
:10066400B5FBF4F10A23013F012F04FB1155BAFB3A
:10067400F3FAE9D1494605F13000C047BBF1030F55
:1006840003D1019B9C1B002C0FDC05B0BDE8F08F4F
:10069400019BBB42E4DBBBF1020FE1D8494602985F
:1006A40003920136C047039ADAE749462020C0473F
:1006B400013CE8E7FFC99A3B014B1860704700BF53
:1006C40070260020002313B502AC44F8043D024612
:1006D4000B460348214602F0CAFC02B010BD00BF1D
:1006E400110600004FF02002EFF3118382F311880A
:1006F400BFF36F8F0121044AC2F8401583F31188B8
:10070400BFF36F8F0020704700900350524A136864
:1007140043F0020313600022D30003F57F03D3F8F0
:100724000013013108D0D3F800130132D3F8043395
:10073400B2F5807F0B60EFD1484AD36913F001030F
:100744003BD0474B1946D3F80024012AFBD1C3F808
:100754000425D1F80034012BFBD1404BDA69D207D0
:1007640008D5DA693E4922F00102DA61D1F80024A1
:10077400012AFBD11A6A01320AD11A6A22F0FF0255
:1007840042F020021A62364AD2F80034012BFBD11F
:100794000022334BC3F80425D3F80024012AFBD1EB
:1007A400BFF34F8F2F49304BCA6802F4E062134302
:1007B400CB60BFF34F8F00BFFDE7126A0132C0D098
:1007C4002A4A116809290AD12949096801390129E4
:1007D4009EBF4FF05021C1F81431C1F8183113688D
:1007E400092B09D1224B1B68012B01BF214A13603D
:1007F400A2F63822C2F878351C4B1A68092A0BD1A4
:100804001B4A1268022A07D100211A4A11600121E9
:10081400A2F63822C2F878151B68092B06D1144BAE
:100824001B68022B02BF0C22134B1A600D4BD3F82A
:100834008C2042F44062C3F88C20D3F8882042F420
:100844007002C3F88820BFF34F8FBFF36F8F0B4B39
:100854000B4A1A60704700BFD0ED00E00080FF0033
:100864000090035000ED00E00400FA053001FF00A1
:100874003401FF00384A0050E4AE035074260020CF
:100884000090D00308B504464FF02002EFF3118323
:1008940082F31188BFF36F8F02F099FD204600F0B8
:1008A4004FFF034802F03FFD00F0ECFBFCE700BF04
:1008B4006F3D00000A2838B50446074D04D1286866
:1008C4000D2143685B6898472868E1B243685B6818
:1008D4009847204638BD00BF0800002010B5044CDE
:1008E400204601F0CFF82046BDE81040FFF7E4BEF3
:1008F400B908000008B5044801F0CCF9034B1860AE
:10090400FFF7ECFF002008BD983D00000800002020
:1009140010B54FF02003EFF3118283F31188BFF376
:100924006F8F154C237833B982F31188BFF36F8F1F
:100934006FF0440010BD013BDBB2237033B182F38E
:100944001188BFF36F8F6FF00F00F3E70B4B01219A
:10095400187838B1217082F31188BFF36F8F6FF06C
:100964000A00E7E7197082F31188BFF36F8F044A16
:1009740011601870DEE700BF1E1900201D19002049
:100984000450005010B54FF02002EFF3118382F3AE
:100994001188BFF36F8F144C207898B183F31188BA
:1009A400BFF36F8F4FF05022D2F81C34D2F81824C2
:1009B40003F0030343F48033934314BF6FF0430005
:1009C400002010BD0122227083F31188BFF36F8FC2
:1009D4004FF05023C3F80401C3F818150221C3F8DB
:1009E40004139A60DEE700BF1C190020F8B54FF02D
:1009F4002002EFF3118382F31188BFF36F8F294A2A
:100A04001078441C147080B183F31188BFF36F8F86
:100A14004FF05023D3F80C3403F00113B3F1011F4A
:100A24000CBF00206FF0430009E01F4D2F783FB149
:100A3400107083F31188BFF36F8F6FF00A00F8BD55
:100A440001262E7083F31188BFF36F8F4FF050246B
:100A540021B3052000F054FDC4F80071D4F8043328
:100A6400C4F804632660D4F800219AB10022DB079D
:100A740058BF0123C4F800214FF0200258BFC4F826
:100A840008330A4B0520C3F8802100F029FD002318
:100A94002B70BDE720BF40BF20BFE4E7C4F80011BE
:100AA4002660F4E71E1900201D19002000E100E073
:100AB4000022104B10B4C3F840214FF02002EFF392
:100AC400118482F31188BFF36F8F0B4AD3F80405A6
:100AD4001168401A20F07F4323F0FF030B44136096
:100AE40084F31188BFF36F8FC0F30F205DF8044BBC
:100AF40001F0C8BC005001500C00002038B51A4861
:100B040001F0C8F860B3436802211B6898470024C9
:100B14004FF48073154D4FF40012C5F80845C5F81D
:100B240040354FF48033C5F80433114B01211C6068
:100B3400104B1520C3F88021224600F0F5FC152047
:100B440000F0CEFC012320460B4A13602B60D5F83D
:100B5400043503F5807323F07F43C5F8403538BD71
:100B64004FF0FF30FBE700BF9F3D000000500150F5
:100B74004051015000E100E00850015070B54FF6BB
:100B8400FE76B0F1FF3F08BF30464FF02003EFF38D
:100B9400118483F31188BFF36F8F421EB242A8BF42
:100BA4003246104D104BD5F804151B6822EAE27248
:100BB400C81A20F07F40FF3000EB022020F0FF0035
:100BC4000344591A21F07F411F2998BF03F580730C
:100BD40023F07F43C5F8403584F31188BFF36F8F4A
:100BE40070BD00BF005001500C0000204FF02002E7
:100BF400EFF3118382F31188BFF36F8F064AD2F8A3
:100C04000405064A1268801AC0F30F2083F3118882
:100C1400BFF36F8F704700BF005001500C000020DD
:100C240008B543B2002B0CDB012200F01F018A40FF
:100C34005B091049203341F82320BFF34F8FBFF3E2
:100C44006F8F830003F1A04303F540533128D3F899
:100C5400002806D0002A07DA02F00302023A012A29
:100C640002D8054AC3F80028002102F0EDFB002059
:100C740008BD00BF00E100E00001008030B54FF482
:100C840040444CF2040585B04FF440412C4802F036
:100C94004AFB21682B4802F046FB29682A4802F0E7
:100CA40042FB10220021684602F07DFC236868465E
:100CB40000930294FFF734FC0120FFF761FC00204D
:100CC400FFF74AFC0120FFF76FFC01210020FFF72A
:100CD40089FCFFF77DFC2C681C4802F024FB0820EB
:100CE400FFF79EFF24F00104BFF34F8FBFF36F8F14
:100CF4006408640020462146224623469FED140AD8
:100D0400DFED130A9FED121ADFED111A9FED102A81
:100D1400DFED0F2A9FED0E3ADFED0D3A9FED0C4A01
:100D2400DFED0B4A9FED0A5ADFED095A9FED086A81
:100D3400DFED076A9FED067ADFED057AFFF7C2FB68
:100D4400D03E0000E73E0000FC3E00001A3F0000D9
:100D5400000000002DE9F843694802F0E4FA00219C
:100D6400DFF8E481674F684D58F82140CA0301F564
:100D7400C07347F82340654802F500434E1C02F057
:100D8400D2FA634B14F0100F6249634808BF194646
:100D940002F0C9FA14F0040F14BF72212D21284661
:100DA40002F0C1FA14F0020F14BF77212D21284656
:100DB40002F0B9FA14F0010F14BF78212D2128464E
:100DC40002F0B1FA14F4807F14BF6C212D2128465F
:100DD40002F0A9FA514802F0A6FA202E3146C3D1F6
:100DE4004F4B484CC3F3C432C3F30E03C3F5004363
:100DF400C3F34313C4F80025C4F80435D4F800152C
:100E0400D4F804254748520102F08DFA434802F011
:100E14008AFA424802F087FA434802F084FA002131
:100E2400DFF82881384E58F821504A0301F5E07361
:100E340044F823503D4802F500534F1C02F073FA66
:100E4400334B15F0100F3349334808BF194602F0ED
:100E54006AFA15F0040F14BF72212D21304602F0F6
:100E640062FA15F0020F14BF77212D21304602F0EB
:100E74005AFA15F0010F14BF78212D21304602F0E3
:100E840052FA15F4807F14BF6C212D21304602F0F4
:100E94004AFA224802F047FA202F3946C3D10024E7
:100EA4001E4802F040FA224802F03DFA154B214D4B
:100EB400DFF89C80DFF89C90C3F8C04405EBC406BF
:100EC400777955F83420002F14BF43464B4621460A
:100ED400194802F028FA57B91848013402F023FAE5
:100EE400162CEBD10D48BDE8F84302F01CBA30795A
:100EF400FFF796FE08B11248EFE71248EDE700BF8E
:100F0400DD3D000000300050153E0000003E0000B2
:100F1400C63D0000BD3D0000B93E0000D5420000C2
:100F2400E07F0000183E00005E3E0000803E0000AE
:100F3400943E0000883B0000B03E0000BC3E000030
:100F4400C33E0000CB3E0000083B0000383C0000DC
:100F5400D23D0000CA3D0000902908B5134639D19E
:100F64000A4601461D4801F0F7FABDE808407146FB
:100F740072467346B7EE000AF7EE000AB7EE001A9F
:100F8400F7EE001AB7EE002AF7EE002AB7EE003AA1
:100F9400F7EE003AB7EE004AF7EE004AB7EE005A11
:100FA400F7EE005AB7EE006AF7EE006AB7EE007A81
:100FB400F7EE007A8EF3008C10B4F1EE10CA4FF6FF
:100FC4006074C0F6FF740CEA040CE1EE10CA10BCA5
:100FD400F44674476FF01500C7E700BF1000002007
:100FE40004488168406A884203D003494FF0805224
:100FF4000A607047DC18002004ED00E013498A6899
:101004004FF028001044EFF3098C80E8F01F2020F3
:1010140080F31188BFF36F8F0D4F4FF000664A6A5B
:101024008A603E60506E0023536680F3118804B5D5
:101034000648806802F03CFABDE8044002F128004A
:1010440090E8F01F8CF3098870470000DC1800203A
:1010540004ED00E01EF0040F0CBFEFF30880EFF383
:101064000980816931F8021C11F0FF010229FFD0C7
:1010740001B502F012FA01BD014910220A6070475D
:1010840010ED00E0404080F3118830BF704700BF8E
:10109400404080F311884FF004007146014202D0B1
:1010A400EFF3098001D1EFF30880714601B500F038
:1010B40075F901BD01B572B60B4A106A00281EBF4E
:1010C4000021116202F0D2FA62B6EFF30580A0F1BA
:1010D40010004FEAC0000549014409C99847BDE81A
:1010E4000140034800470000DC180020603800007D
:1010F400E50F0000002320210348C2180133412BCF
:1011040082F80013F9D1704700E100E0094A0A4966
:10111400936809685866996608494B6843F0805398
:101124004B60002383F31188BFF36F8F9368986E2D
:10113400704700BFDC180020E83C000000ED00E030
:1011440038B51B4C05461B4802F0EDF8A36AD906D6
:1011540002D5194802F0E7F8A36A1A0702D517481E
:1011640002F0E1F8A36A9B070ED5154802F0DBF8FC
:10117400616BA36A180607D5124802F0D4F81DB1B2
:10118400A36A23F08003A362094CA36ADA0702D599
:101194000D4802F0C8F8A36A9B0602D50B4802F07A
:1011A400C2F8A36AA36A002043F0FF03A36238BD18
:1011B40000ED00E0A5400000BC400000F04000004D
:1011C400044100001D41000034410000544100006E
:1011D40038B51E4C05461E4802F0A5F8A36AD9048A
:1011E40002D51C4802F09FF8A36A1A0502D51A48D2
:1011F40002F099F8A36A9B050ED5184802F093F8FB
:10120400A16BA36A180407D5154802F08CF81DB128
:10121400A36A23F40043A3620C4CA36A590502D5C4
:10122400104802F080F8A36ADA0509D50E4802F0E6
:101234007AF8064A0020936A43F47F43936238BDE8
:10124400A36A9B04F5D50948F1E700BF00ED00E06F
:10125400174000002E400000F04000004040000015
:101264005A400000704000008C40000054410000CF
:1012740010B51C4C1C4802F056F8A36A9A0102D51A
:101284001A4802F050F8A36ADB0102D5184802F0AC
:101294004AF8A36ADC0202D5164802F044F8114C5D
:1012A400A36A180302D5144802F03DF8A36A59034F
:1012B40002D5124802F037F8A36A9A0302D51048FF
:1012C40002F031F8074CA36ADB0302D50D4802F0A3
:1012D4002AF8A36A00206FEA03436FEA1343A36268
:1012E40010BD00BF00ED00E0644200007D4200003C
:1012F40091420000AC420000D7420000F6420000D8
:101304001C4300003743000010B51A4C1A4802F081
:101314000AF8A1696369580602D5184802F003F86F
:101324006369D90707D5164801F0FDFF636943F0E7
:10133400FF03636110BD63699A0701D51148F3E7A0
:1013440063695B0701D51048EEE76369180701D5A7
:101354000E48E9E76369D90601D50D48E4E76369F6
:101364009A0601D50B48DFE763691B06DED50A48F8
:10137400DAE700BFD0ED00E0844100009E410000A8
:10138400AF410000C6410000E541000001420000F9
:101394001F42000035420000504200003D4B70B532
:1013A4005E6801F07F43B3F17F4F05460C465DD183
:1013B40011F0010041D048061BD42968364B374848
:1013C4000B44012B98BF296C01F0ADFF14F0080405
:1013D400304B09D0EFF389855C6814F4006408D1BC
:1013E4002F4801F0A0FF41E0EFF388855B68190501
:1013F400F6D4C6F30806F21E092A3FD8DFE802F045
:1014040005383A2D343E3E3E3E3C264801F08BFFE3
:10141400204BDA6A920701D52348E2E7D86A10F034
:1014240080400AD0214801F07EFF214B1B784BB14C
:101434000120FFF785FE06282BD02946BDE8704021
:1014440000F0B4B81B4B1B781BB10120FFF7C0FEA2
:10145400F1E7194B188884B214B1FFF709FFEAE7E2
:10146400164B58690028E8D0FFF74EFF0020E4E748
:101474000020DEE70020E9E71148B2E711481249ED
:10148400A6F110020F2ED8BF0146104801F04BFF01
:10149400ECE770BD00ED00E0A6ED0501914300000E
:1014A400B1430000D6430000EE43000010440000A6
:1014B40028ED00E029ED00E02AED00E0D0ED00E0A9
:1014C4003044000063430000784300006744000098
:1014D400024A536943F010035361704700ED00E082
:1014E40043B2002B08DB012200F01F0002FA00F0D7
:1014F400024A5B0942F82300704700BF00E100E0A4
:1015040043B2002B0DDB012200F01F0002FA00F0B1
:101514005B09044A203342F82300BFF34F8FBFF323
:101524006F8F704700E100E043B2002B01F101012D
:10153400A8BF03F160434FEA4111B8BF054BC9B2DC
:10154400ABBF03F5614300F00F0083F80013195497
:10155400704700BF14ED00E02DE9F0418C18884677
:1015640017461E4604220A9B0999054602F028F9EB
:1015740000220D49A4F1200323F0070321F0010107
:10158400C5E91322C5E91687996106991E60596059
:10159400079999600899D9604FF08071D961AB645B
:1015A4006A66BDE8F08100BF3F30000038B50446EC
:1015B4000D4605281AD8DFE800F00319191315178A
:1015C4000D4801F0B0FE00F019FEAA6901460B486F
:1015D40001F0A9FE29462046BDE8384000F018B8BD
:1015E4000748EEE70748ECE70748EAE701460748FB
:1015F40001F099FEE7E700BF7B44000019450000B5
:101604009B440000C1440000DB440000F644000099
:10161400052810B50CD000F0F7FD60B100F0F4FD22
:101624000C490D4B002808BF19460C4801F07BFEFD
:10163400FFF728FDFCE700F0F7FD0028EED1084C89
:101644000848A16801F06FFEA068BDE8104000F0F2
:101654000BB800BF55450000594500006A4500001D
:10166400DC1800208A45000038B505464FF02003F9
:10167400EFF3118483F31188BFF36F8F02F081F8C5
:101684000A4B9B68AB420BD1094B5A68C2F3080260
:1016940012B92046FFF73AFD5A6842F080525A6068
:1016A4002046BDE8384002F013B800BFDC18002023
:1016B40000ED00E001F045FE202080F31188084889
:1016C4004FF40061401880F30988EFF3148002217D
:1016D400084380F31488BFF36F8F00F007F800000D
:1016E400701E002030BFFFF7FDBF00BF114A08B5D0
:1016F400114B22F07F029A60BFF34F8FBFF36F8FBD
:10170400D3F8882042F4A002C3F888200B4A536817
:1017140023F040435360BFF34F8FBFF36F8F002319
:10172400E1EE103A00F0F6FA00F0FEFAFFF7E2FC00
:1017340000F02CFB0000000000ED00E030EF00E0C2
:10174400BFF34F8F0549064BCA6802F4E0621343A6
:10175400CB60BFF34F8F00BFFDE700BF00ED00E09B
:101764000400FA0510B50E4B88B002930D4B0E4CD5
:1017740003930E4B08A8049302AB40F81C3D0C4A9B
:101784002346012100F002F900230793094B0121AC
:10179400E41A05A80593069400F002F908B010BDF8
:1017A40000000020000000000000012006000100ED
:1017B400000000200000002010B50B680C7A23F014
:1017C4001F0304F01F021A43CB68640923F01F03AC
:1017D400044943F0010343EA44038860CA600B618F
:1017E40010BD00BF90ED00E02DE9F04F8046894622
:1017F40014460027484D85B04F4507DA58F827307E
:101804005E68C6B31F2E05D86FF01504204605B0D8
:10181400BDE8F08FF206F7D1D3F800A01AF01F0F3D
:10182400F2D1504601F091FB834606EB0A000138E1
:1018340001F08BFB8345E7D11BF1160FE4D0631E47
:101844005B45E1DBC5F808B0E86858F82710C5F82F
:1018540008B02E6920F01F00D1E900321A449842E2
:1018640046F01F0602F1FF3A18D1564505D15FFA3A
:101874008BF001F025FE0137BEE7C5F808B0EB6830
:1018840022F01F0203F01F031A43EA60E0B201F0E2
:1018940017FE10F1160FB7D0441CECE7C5F808B0DA
:1018A4002A69013B23F01F0302F01F02134356452C
:1018B400E0B22B61EBD001F003FE10F1160FA3D0C0
:1018C400C5F808B0EA689DF80830013E62F30403E5
:1018D4008DF808302B699DF808205B0863F34712E4
:1018E4008DF8082058F827200130D2E9003213443B
:1018F400009323F01F031E44A6EB0A06C4B226F08D
:101904001F060F2C03963FF67FAF20466946FFF76C
:1019140053FF0134AFE700BF90ED00E00522034B15
:101924005A60BFF34F8FBFF36F8F704790ED00E0A5
:10193400BFF35F8F0022014B5A60704790ED00E0C7
:1019440070B50E4D2E68102E15D80024FFF7F0FF49
:101954000B4B0C4A1A63A64205D10B4B1E70FFF7C2
:10196400DDFF002070BD6968204601EB0411FFF71C
:1019740023FF0134EFE74FF0FF30F3E7C83A0000EC
:1019840090ED00E0AAFF44001F19002010B5034C9D
:101994002278FFF729FF207010BD00BF1F19002017
:1019A4002DE9F74F894607460026DFF89080DFF8D7
:1019B40090A0214C4E4519DAD7F804B0BBF1000FC2
:1019C40036D03B681846019301F0BFFA019B0546E7
:1019D4000BEB0300013801F0B8FA1423854203FB32
:1019E40006F306D06FF0150248F8032003B0BDE8F3
:1019F400F08F15F1160F48F80350F7D09AF800202D
:101A0400AA42F3DDA5604344A560E068197B60F356
:101A1400040119732169187B490861F3471018738D
:101A2400E26822F01F025A60226922F01F021A6142
:101A340001360C37BEE700BF90ED00E0F017002040
:101A44001F19002070B50C4B0E461C780546234622
:101A540000210A4A0F2B0BDD094B191D1868FFF7EB
:101A6400ABFE224631462846BDE87040FFF7BCBEB7
:101A7400936011610133EDE71F19002090ED00E040
:101A8400F0170020014B1860704700BF7826002033
:101A940070B54B79012B23D18B79032B20D1CC79D1
:101AA4002CB1012C1CD103689B681B79C3B10A7942
:101AB40012B1022A14D10E2247F6122603689B683B
:101AC4001D680B68B3426BD027D8B3F5965F61D01D
:101AD40012D8B3F5167F4DD005D8B3F5967F74D0E0
:101AE4006FF0220052E0B3F5966F50D0B3F5166F45
:101AF400F6D14FF41D233FE0B3F5615F4CD004D819
:101B0400B3F5165FECD1324B36E0B3F5964F45D0C2
:101B1400B3F5E14FE4D12F4B2EE0B3F5E13F48D0CC
:101B240012D84DF6C026B3423DD005D8B3F5164FB2
:101B3400D6D14FF41D031FE0B3F5614F36D0B3F592
:101B4400963FCDD1244B17E0B3F5E12F37D008D819
:101B5400B3F5613F30D0214EB342C1D14FF0806321
:101B64000AE0B3F5612F2DD01D4EB342B8D14FF02A
:101B7400805301E04FF41C33C5F8243583682243B5
:101B840003C9C5F86C2583E80300002070BD4FF439
:101B94009E23F1E7134BEFE7134BEDE7134BEBE712
:101BA4004FF40003E8E74FF46503E5E74FF46B03F4
:101BB400E2E74FF0EB73DFE74FF06C73DCE74FF0D5
:101BC400E863D9E74FF07063D6E74FF4A033D3E767
:101BD4000050270000C0750000903A0190D0030027
:101BE40040420F0000B0130000F03A0000A04E0085
:101BF400026838B59268114B14684FF40002856886
:101C04009A600322C3F85C220022C3F860221723DF
:101C1400C4F80C3518232946C4F81435FFF738FFE7
:101C240058B90823C4F800351D440123C4F8100131
:101C3400C4F83455C4F83835236038BD00258450C1
:101C4400014B1B68184700BF88260020014B1B6806
:101C5400184700BF8C260020024B0A461B6800214F
:101C6400184700BF9026002070B50026084B53F893
:101C74002040013053F82050A54200D870BD23689D
:101C840020465B68984700B166600C34F4E700BFF7
:101C9400D43C0000104B70B505461E460F4C9C42C8
:101CA40004D10E4CB44209D1002412E062681AB186
:101CB40022681268AA420CD00C34F0E763680BB9AE
:101CC4000C34EFE723682846196801F01BFC002850
:101CD400F6D1204670BD00BFFC2600209C260020C3
:101CE40008B50B4D4FF02002EFF3118382F31188F6
:101CF400BFF36F8F01F082FD012104460228D8BF93
:101D0400084601F08BFD2C62FFF7BCF9EAE700BF3F
:101D1400DC1800200248034A0021121A01F043BCD7
:101D2400000000202C19002008B50648064A07497F
:101D3400121A01F00BFCBDE80840054A05490648A3
:101D440001F004BC7026002010270020E8450000A4
:101D540000000000E84500000000002008B5022053
:101D6400FFF782FF074801F0DEFA0320FFF77CFF4C
:101D740000F0A0FA01F0E2F8034A137B23F0010318
:101D8400137308BDAF4500007018002080B5444BA4
:101D9400A2B083F308880025E023424C012784F88D
:101DA4002230E57725766576A576E576636A3E4E3C
:101DB40043F4E0236362636A43F400236362A5632C
:101DC400E3689BB243F0BF6343F40833E360FFF777
:101DD4007FFBFFF751F94FF0FF33A362E36207ABD8
:101DE40029466C22184601F0DEFBB06028468DF8C7
:101DF4002970FFF739FF3846FFF736FF2B4C00F008
:101E0400F1F92B4B74624FF48062CDE90473CDE990
:101E14000255CDE90055274B2749204600F030FAFA
:101E2400637B354623F0040213F01B0F627304D165
:101E3400A36913B9204600F003F9204B002605934B
:101E440001220F231E4FCDE90332CDE9016600962E
:101E54001C4B4FF4A0721C49384600F011FA7B7BEE
:101E6400EF6023F004037B73184BC5E90633E1EEFE
:101E7400106AFFF777FC0D48AC6001F019FB0D4BBD
:101E8400134A184682F3098863B64FF0000181F3C0
:101E94001188BFF36F8F00210022002301F0CDF8D9
:101EA4007026002000ED00E0DC18002070180020EF
:101EB400DC450000611D000030190020E1450000F0
:101EC40004180020E51C0000301D0020F418002038
:101ED400301D0020EFF305800D2809D828B1054BEB
:101EE400586880F40060C0F3C02080F0010070479F
:101EF4000120FAE700ED00E008B5FEF777FE054B98
:101F0400054A1B680021184410611846BDE80840C2
:101F140001F084BC14190020DC180020F8B50D462B
:101F24004FF02003EFF3118483F31188BFF36F8F15
:101F34004FF40041002700220B4E0C4BC1FB0067FD
:101F44001A6130464FF47A3200233946FEF7F8F826
:101F5400074B1860074B1D60FFF7CEFF84F3118811
:101F6400BFF36F8FF8BD00BFFFE70300DC1800204C
:101F740014190020101900204FF02003EFF31181F1
:101F840083F31188BFF36F8F044B9A68D37B013BB3
:101F9400D37381F31188BFF36F8F7047DC1800206F
:101FA400094B03F12802824205D19B688B4202D17E
:101FB4004B7BDB0607D1D1E900231A600A68536022
:101FC4000023C1E900337047DC18002038B50D4CFC
:101FD400024604F1280001F094FB054600B9E568C7
:101FE400A3684AB95A7BD20606D1AA6922B9DA890A
:101FF4007F2A01D9636238BD9D4201D0FFF77CFF7F
:102004006562F8E7DC18002010B54FF02003EFF309
:10201400118483F31188BFF36F8F084B01209A68F2
:10202400D37B0133D373FFF7D1FF84F31188BFF35C
:102034006F8FBDE8104001F05ABB00BFDC180020D0
:10204400F8B54FF02003EFF3118483F31188BFF345
:102054006F8F164A114651F8283F8B420CD05BB162
:10206400D66A90F90E5093F90E70AF420BDCB3426E
:1020740002D01B68002BF6D1D36A01604360D36A97
:102084001860D06205E05A68C0E900325A681060EE
:102094005860437B43F0400343730020FFF796FFEF
:1020A40084F31188BFF36F8FF8BD00BFDC180020E4
:1020B400F8B504464FF02003EFF3118683F311883B
:1020C400BFF36F8F194F014607F128052846FFF724
:1020D40067FFBB6A3A46AB420CD05BB1F86A94F92D
:1020E4000E1093F90E708F420BDC834202D01B68F2
:1020F400002BF6D1D36A25606360D36A1C60D46276
:1021040005E05968C4E9003159680C605C60637B80
:10211400906843F040036373031B58425841FFF730
:1021240055FF86F31188BFF36F8FF8BDDC180020CC
:102134001449154A10B58B681468A34203D1BDE84D
:102144001040FFF7D9BE00241460104A1268BAB1D7
:10215400DA897F2A14D80E4A93F90E401268944201
:102164000EDB0C4A126893420AD09A6942B90A6992
:10217400824203DC1846FFF79BFFE0E7121A0A616C
:1021840010BD00BFDC1800200C1900201419002019
:1021940010190020EC3C000038B504464FF0200331
:1021A400EFF3118583F31188BFF36F8F437B5A06D6
:1021B40007D501460948FFF7F3FE637B23F040038C
:1021C4006373074B9868031B58425841FFF7FEFEA0
:1021D40085F31188BFF36F8F38BD00BF0419002049
:1021E400DC1800200021044B084603F12802C3E94F
:1021F4000A22FFF793BE00BFDC180020014B986849
:10220400704700BFDC180020EFF305800D2807D8C5
:1022140038B1044B586880F40060C0F3C0207047A4
:102224000120704700ED00E0024B9B68187B00F032
:1022340001007047DC18002010B502464FF020035F
:10224400EFF3118483F31188BFF36F8F437B590736
:1022540004D484F31188BFF36F8F10BD23F00403FB
:10226400437301F085FA10B11046FFF7E9FE2146E9
:10227400BDE81040014801F01DBA00BF201900203C
:1022840030B587B00E9D044604950D9D03950C9DB5
:1022940002950B9D01950A9D0095FFF75DF9044B8E
:1022A4009B6813B9236607B030BD1B6EFAE700BF05
:1022B400DC1800202DE9F04F284E294DB04687B098
:1022C400B54205F130040FD3FFF756FE4FF4004931
:1022D4000027234C234EDFF890A0444521D307B0B8
:1022E400BDE8F04FFFF790BE54F8043C059354F852
:1022F400103C049354F8143C039354F8183C029390
:1023040054F81C3C019354F8203C009354E90A23EC
:1023140054E90C01FFF7B4FF54F8303CDD64254662
:10232400CEE7616A4B1C04D0256821B92846FFF723
:1023340083FF3034D1E7B346BC46C9FB01BC4FF43C
:102344007A32002358466146FDF7FAFE5146421C94
:1023540005F1180000F052F8EBE700BFFC2600205E
:10236400FC260020FFE7030013370000034B1B6823
:102374000BB9FEF73BBC0020704700BF18190020C2
:10238400036840B1084A5268904204D01BB19A686D
:1023940081680A449A604268136003685A600023A3
:1023A400C0E90033704700BF9426002038B5104BB5
:1023B4001B78002B0F4B18BF4FF0FF301C6808BF71
:1023C4006FF000409C420AD04CB1A568FFF7CEFFE5
:1023D400281A00280ADBA468FFF7C8FF201A064B56
:1023E4001B6913B19842A8BF184638BD0020F6E710
:1023F4002019002094260020DC18002070B5044623
:102404001646C1604FF02003EFF3118583F3118862
:10241400BFF36F8FFFF7AAFF012EACBF8019013005
:10242400174BA0601A689A4201D05E6832B95A68A4
:10243400236062605A6814605C600BE09068A16875
:10244400884216DD411A91605168C4E9002151683F
:102454000C6054601A689A4206D0944204D1FFF783
:10246400A5FF0021FEF78AFB85F31188BFF36F8F68
:1024740070BD091A9642A160D9D01268D6E700BF90
:10248400942600202DE9F04B0446FFF751FE4FF04F
:102494002003EFF3118583F31188BFF36F8F214F6E
:1024A400214EB846DFF884903460D9F80040326891
:1024B4004C45D7E900BC05D024B1A368934214DD90
:1024C4009B1AA36000241BEB02004CEBE271C8E9E9
:1024D40000013460FFF76AFF2146FEF74FFB85F3E6
:1024E4001188BFF36F8FBDE8F08B1BEB03004CEB3F
:1024F400E371D31A33600023C7E90001A3602046C7
:10250400FFF73EFF85F31188BFF36F8FE3689847A9
:102514004FF02003EFF3118583F31188BFF36F8F1E
:10252400C3E700BF000000201819002094260020F3
:1025340038B5074C074DAC4201D3002038BD04F137
:1025440014032046C4E9053300F02CFD1C34F2E7E3
:10255400FC260020FC2600202DE9F04192B00592D3
:10256400002966D0002B64D0002A62D00F461D4695
:102574000446E0B106AE3046042100F0BFF808A8D6
:10258400282100F0BBF808A800F066F8002841D024
:1025940020464FF4BF51FFF75FFB4FF0FF35304645
:1025A4000421FFF759FB284612B0BDE8F0814FF42F
:1025B400BF510120FFF744FB8046002839D006AE06
:1025C4003046042100F09AF808A8282100F096F873
:1025D40008A800F041F80246002834D107ABCDE941
:1025E40002800093019508A905AB304600F0A8FBD2
:1025F40048BB2A68059B9A421ED94FF0FF354FF419
:10260400BF514046FFF728FB002CC8D14046FFF7D6
:102614001DFBC4E707ABCDE90240024600930195D8
:1026240008A905AB304600F08BFBA0460028AFD1CB
:10263400DFE74FF0FF35B6E707993846083100F079
:102644005BF80025DBE74FF4BF514046FFF704FB7E
:102654004FF0FF35DAE700BF1C2330B583B002A981
:1026640041F8043D044600F04DF80546D8B9019BF5
:102674001C2B1BD1D4E9003201210033E16118BFC6
:1026840001230AB143F00203A26832B9E268AAB98D
:10269400C4E908323BB90D4D09E0E26843F0040394
:1026A40062B9C4E90832284603B030BD084D20465B
:1026B4001C2100F023F8284603B030BD0022284630
:1026C40043F00803C4E9083203B030BD0E0CF00037
:1026D400370CF000BFF34F8F0549064BCA6802F46C
:1026E400E0621343CB60BFF34F8F00BFFDE700BF31
:1026F40000ED00E00400FA0500F011BF0A460021D5
:1027040000F051BF18B111B10B681C2B01D001208E
:1027140070474FF47F033A4AD3F8101C91425AD0C1
:10272400D3F8102C013256D0D3F8102C4FF47F0379
:102734000260D3F8141C334A91425ED0D3F8142CAF
:1027440001325AD0D3F8142C4FF47F034260D3F8EB
:10275400182C12F5947F4DD0D3F8182C013249D09F
:10276400D3F8182C4FF47F038260D3F81C1C264A3C
:1027740091423CD0D3F81C2C013238D0D3F81C2C15
:102784004FF47F03C260D3F8002C70322DD0D3F8FD
:10279400002C013229D0D3F8002C4FF47F030261BE
:1027A400D3F8042CAF321ED0D3F8042C01321AD043
:1027B400D3F8042C4FF47F034261D3F8081C134A66
:1027C40091420BD0D3F8082C013207D0D3F8083C3F
:1027D40083610020704740F6FC02A7E740F23733DC
:1027E4008361002070475122E4E79022D5E742F646
:1027F4000412C5E740F6D862B4E742F2D002A3E778
:10280400FCF8FFFFD020FFFF0429FFFF37F3FFFF91
:10281400A8B32DE9F0414C1EB4F5047F2CD25BB370
:1028240052B34FF0000CC900E646654664464F1E9D
:1028340003F1FF380CE0AB4216D08E4501D10CF108
:10284400010CA84516D00134BC4205F1010518D885
:10285400610950F8211004F01F06F1401F2E18BF23
:1028640001F00101002CE6D10025A8458E464FF069
:10287400010CE8D16245E6D20348BDE8F081024884
:1028840070470020BDE8F081370CF1002DE9F04FCE
:102894008FB00D46DDE919418346002959D12969D4
:1028A4000391002104F5C1601860189B1960002A87
:1028B40000F02281814A824B11686A6A1B689A423D
:1028C40057D10A2955D19BF8033006930399042361
:1028D40008467C4A0293A2FB00029208CB0002EB5A
:1028E400420204F5C260A1EB4202013BDFF8D09141
:1028F400DFF800A2049000920593189B039C1C60CF
:10290400002C00F0CC800026049F00F0F1FA002394
:102914000793069BBBF1000F3AD0002D34D053BB74
:102924005B000693BBF1000F36D0002D34D0E3B129
:1029340006A9284600F0CCFA002800F07D81624BFD
:10294400984212D0009000F0D3FA00980FB0BDE87E
:10295400F08F4FF47F01D1F80C0C01300CBF4FF411
:102964000471D1F80C1C03919BE72B6A73B9564888
:10297400E8E75648E6E706A9284600F0A9FA68B150
:10298400534B9842DED0069B082BC9D15148D9E756
:10299400082BFBD05B0006934F48D3E729460698E3
:1029A40000F078FA0028EBD1069B082B00F00E818A
:1029B400042B00F03181A3F10203B3FA83F35B0922
:1029C400019301231946454A136042F8843C434B62
:1029D40019606B6AC9F80030D9F800206B6A9A4212
:1029E400F5D14FF000084FF0FF30CAF8008000F036
:1029F40027FA3B4A3B4B40461A6000F02FFA0A2262
:102A0400019839492D4B08601A602A69A8F1553894
:102A1400A8FB02126B6A120903EB4303DB0303FBFB
:102A240002F3324A9B0913600123CAF80030069965
:102A3400DBF800200B0243EA016322F07F421343D8
:102A4400CBF8003007A800F015FA002898D1284BDD
:102A5400A8FB04281A681433089253F8102CB6EB18
:102A6400980F099253F80C2C0A9253F8082C0B92E5
:102A740053F8042C0C921B680D9301D1009B9BB955
:102A84003846182208A9FFF737FE183C18370136D4
:102A9400002C7FF43AAF049B002B40F09A80002373
:102AA400189A1360069B6FE71A46384608A9E41A79
:102AB400FFF722FE009B1F44E9E700BF3811845052
:102AC40030118450ABAAAAAA310CF100300CF100E9
:102AD400020CF100320CF100350CF100C4118450E9
:102AE400FEFFFF0F001184500C118450D811845044
:102AF400141184502C118450BBF1000F3FF44CAFDF
:102B0400002D3FF449AF01230EA941F8203DCBF835
:102B14000020284600F0DCF900287FF413AF294692
:102B2400069800F0B7F900287FF40CAF069F082F31
:102B340000F0EB80042F00F0EA80A7F10207B7FA57
:102B440087F77F0901221646734B74491A601846A9
:102B54000A60943B06606A6A1A6019686A6A91425C
:102B6400F8D14FF000086E4B4FF0FF30C3F80080EF
:102B740000F066F96B4B6C4A40461A6000F06EF93F
:102B84000A226A496A4B0F601A601A992B69012953
:102B94006A6A00F0B1806749A1FB03131B09012194
:102BA40002EB4202D20303FB02F3634A9B09136064
:102BB4005B4B19600699DBF800200B0243EA0163C2
:102BC40022F07F421343CBF800307FE603230193C6
:102BD400F7E6039BB3F5047F3FF661AFDDE9047CC0
:102BE400204623466E6904E0012001336345144600
:102BF40015D85A0957F8222003F01F01CA401F298B
:102C040018BF02F00102002BEED0A242ECD1013039
:102C14008642EAD149480BE002230193D1E64FF4FE
:102C24008063DDE90310AA69FFF7F2FD00285DD097
:102C34000023189A1360A3E62946069800F02AF99F
:102C440000287FF47CAE069C082C51D0042C51D073
:102C5400A4F10204B4FA84F4640901231E4619465B
:102C64002D4A136042F8843C2B4B19606B6AC9F8F7
:102C74000030D9F800206B6A9A42F5D100274FF052
:102C8400FF30CAF8007000F0DBF8264B264A3846BD
:102C94001A6000F0E3F80A222449254B0C601A60FC
:102CA4002A6924496B6AA1FB021203EB430312094C
:102CB400DB0303FB02F3204A9B091360CAF800609C
:102CC400069BDBF800101A0242EA036321F07F42FC
:102CD4001A43130A03F47F03134323F07F43CBF80F
:102CE4000030029B013B02937FF407AE002029E6EB
:102CF4000324B2E70224B0E74FF47F03D3F80C1C9B
:102D0400013106D0D3F80C3C45E703271AE7022724
:102D140018E7162343E700BFC411845040118450C0
:102D24002C11845000118450FEFFFF0F0C118450AD
:102D340038118450ABAAAAAAD8118450360CF100D9
:102D44002DE9F0431B4C85B00746DDE90D56884656
:102D540020684FF0FF31914600F036F828BB002080
:102D640000F036F8E8B90023CDE9005602934A464C
:102D7400414638460C9BFFF789FD0546012000F0CB
:102D840027F850B9206800F021F810B10A48FFF77D
:102D9400A1FC284605B0BDE8F0830848FFF79AFC7B
:102DA400F0E70748FFF796FCDDE70648FFF792FCDB
:102DB400D5E700BF24190020483D0000283D00004D
:102DC400083D0000F03C00000020704700207047E0
:102DD400194B82B0D3E8AF2F0192019A98B901320E
:102DE400D3E8EF1FC3E8E02F0028F9D18A42F7D1D6
:102DF400BFF35F8F019B1BB90122104BC3F8002561
:102E0400002002B07047002AFAD0019A012A0ED09D
:102E1400019A013AD3E8EF1FC3E8E02F0028F9D163
:102E24008A42F7D1BFF35F8F002002B070470021C0
:102E3400024AC2F80015EBE728190020000084506C
:102E4400430503D54FF0FF32024B1A60024B186062
:102E5400704700BF08118450081A8450014B186051
:102E6400704700BF041A845008B100F04FB84FF403
:102E74007500704708B501464FF48060FFF7F4FF12
:102E840000230249024A0B60136008BDC811845034
:102E94002C1184500138072815D8DFE800F0100CF5
:102EA400140814141404CB6800204B6270478B6818
:102EB40000204B6270474B6800204B6270470B68E0
:102EC40000204B6270470148704700BF310CF1008D
:102ED4000B6802E0082B0B6006D8026A13424FEA23
:102EE4004303F7D00020704700487047310CF100CD
:102EF40000230449044A0B604FF480601360FFF719
:102F04009FBF00BF2C118450C4118450024607484F
:102F140003681342FCD021B1054B06481B680B60C3
:102F24000360054B00201A60704700BF001A8450EC
:102F34000411845008118450081A845008B5FDF710
:102F440009FFBDE80840FDF799BE40E800F313F41B
:102F5400803FD8B208BF6FF01500704770B50C25DC
:102F64004D43C66890F90B0074198842A8BF2146E6
:102F74004FF0200492FBF4F4B8BF715902F01F0023
:102F840001EB8401196070BD07B501ABFFF7E6FFE3
:102F94000123019A03FA00F013680343136003B09A
:102FA4005DF804FB2DE9F8430446FF2200214FF0AD
:102FB4000C0E4368058900685D4394F80AC02844F0
:102FC400E2728C4505DC00252389AB4222DCBDE896
:102FD400F883B5FBF3F20EFB01F7D4F80C801F2A3B
:102FE40008EB0706C8BF1F324FEA930306F1040932
:102FF400C8BF520903F10303C6E9019923F003038F
:10300400D4BFE17248F8070001F10101C8BF00EB29
:103014008200D6E76268E3686A4320681E1D81184F
:1030240086509A6820464A609A68116099602A46D8
:103034000021FFF7A9FF0135C6E708B50446084695
:1030440011461A46A047FFF7D9F8FEF70DFB0020FA
:10305400704770B50D4604464520A04729465220C6
:10306400A04729462346BDE87040522018472DE961
:10307400F04F4FF0000A06460F464FF0FF39D04696
:1030840089B01C46531E0393002505E06DB925281D
:1030940000F03D813946B047039B13F8010F0393B9
:1030A4000028F3D109B0BDE8F08F642862D019D8A4
:1030B40039280AD8312851D22D283DD030283ED085
:1030C400252808D13946B047DEE7582800F0A88003
:1030D400632800F0168139462520B047039B394602
:1030E4001878F0E7702800F0918006D8692841D05C
:1030F4006C283CD06828CFD0EDE775286DD017D860
:103104007328E8D1256804F1040B2B461C4614F8F7
:10311400010B002840F0EC80B8F1030F40F000816F
:103124005C1BA9EB0404002C00F3E6805C46ABE7CF
:10313400782875D07A28DEE74FF00308ACE7B9F1B8
:10314400000F0EDAB8F1000F00F0E780A0F13009AB
:10315400B8F1000F08BF4FF002089DE7B9F1000F66
:10316400F4DB0A2303FB0909A9F13009F0E70AF1AA
:10317400010A91E7BAF1000F12D125680434002D39
:1031840005DA39462D20B0476D4209F1FF3943462F
:103194002A46CDF8009039463046FDF73FFA73E7EA
:1031A400BAF1010FE9D04FF0000C4FF0FF3B0734A8
:1031B40024F0070303F10804D3E9002312F10040CB
:1031C40043F100018C4508BF834504D2394630469B
:1031D400FFF73FFF58E71546D1E7BAF1000F05D1D5
:1031E40022680434CDF800904346D4E7BAF1010FC5
:1031F400F6D0073424F0070303F10804D3E90023CD
:10320400002B08BFB2F1004FECD3DFE73946302082
:10321400B04739467820B0474FF008094FF001080D
:10322400BAF1010F27DC23680434079300230493C5
:1032340010220023934602930693079B0BF1FF3B56
:103244004FEA8B00C0F1200CA0F1200123FA00F01A
:10325400049B03FA0CFC40EA0C0023FA01F1084336
:1032640010F00F0013D1069B13B9BBF1000F2ED140
:103274004FF0300C11E0073424F007031A6803F10F
:1032840008045B6807920493D2E7059AD5E70928F6
:103294008CBF4FF0570C4FF0300C39466044059208
:1032A400B047029B069501330293BBF1000FECD1AA
:1032B400B8F1030F7FF4E8AE029BC3EB4905002D80
:1032C4007FF7E2AE39462020B047013DF7E7531EB1
:1032D40091450593E9DBB8F1010F03D1394630205C
:1032E400B047E2E7B8F1020FDFD139462020F7E713
:1032F4003946B047234609E739462020B047013C08
:1033040011E72068251D3946B0472C46BCE6AA467D
:10331400A8464FF0FF390125BEE64FF00108BBE691
:103324005C460546B8E60FB407B504A951F8040B8A
:103334000191FDF7C7F903B05DF804EB04B07047E1
:103344007047FDF7E3B94FF0502330B5D3F8085177
:10335400D3F80423D3F8004102F00102D3F8041394
:10336400D3F8040115B10025C3F80851B4B14FF0E6
:1033740050230024C3F8004122B14FF0502301220E
:10338400C3F8082348B100224FF05023C3F80421A6
:103394008A0702D50222C3F8082330BD002AF1D0DF
:1033A4004FF05023D3F80C3403F00113B3F1011F91
:1033B400E8D1E2E708B5002201210520FEF7B4F8C0
:1033C4000520FEF78DF8002008BD70477047704750
:1033D40008B50120FDF756FABDE80840704671466D
:1033E40072467346B7EE000AF7EE000AB7EE001A0B
:1033F400F7EE001AB7EE002AF7EE002AB7EE003A0D
:10340400F7EE003AB7EE004AF7EE004AB7EE005A7C
:10341400F7EE005AB7EE006AF7EE006AB7EE007AEC
:10342400F7EE007A8EF3008C10B4F1EE10CA4FF66A
:103434006074C0F6FF740CEA040CE1EE10CA10BC10
:10344400F4467447FDF724BE43B2A9B1002B12DB46
:1034540001215B099B0003F1604303F56143D3F849
:10346400802200F01F0001FA00F022EA0000C3F8F5
:103474008002D3F880327047002BFCDB01225B0909
:103484009B0003F1604303F56143D3F8801200F01D
:103494001F0002FA00F00843E9E701460068FEF75E
:1034A40085B808B5FEF71EF9BDE80840FDF798BDDC
:1034B40007B5002101A8FEF7C5FA03B05DF804FBC7
:1034C40030B54B6885B00C689DF808200D890094D0
:1034D400498924F01F04013B234465F3040261F38A
:1034E400471223F01F030F288DF808200393044686
:1034F40005D86946FEF760F9204605B030BD6FF087
:103504001504F9E70138013910F8013F11F8012FCA
:10351400934202D1002BF7D11A46981A7047431AE6
:10352400934210B500EB020308D3024601399A42D4
:103534000BD011F8014F02F8014BF8E70A4412F8D6
:10354400014D8A4203F8014DF9D110BDF0B581EA6D
:103554000004A50703460BD0013B0A4491421DD148
:10356400F0BD002AFCD011F8014B013A03F8014BDD
:103574009C07F6D10C461D1F8F183E1B032E08D83E
:103584006FF00305940805FB0422A400234421449E
:10359400E2E754F8046B45F8046FEEE711F8014BC9
:1035A40003F8014FDAE70346F0B5C9B29C070FD11F
:1035B4001D4641EA012444EA04449F187E1B032E5D
:1035C4000CD8940803EB840413449C4209D1F0BD45
:1035D400002AFCD003F8011B013AE7E745F8044B45
:1035E400ECE704F8011BF0E74FF0FF3070470B469F
:1035F400826892E8030083E80300002070470368B0
:103604009B681B68D3F8240118B1D3F88004C3F86D
:1036140080047047036882689B681B68D3F81001B4
:1036240038B1127A00200A700122C3F810011A601E
:1036340070474FF0FF30704782B002AA02F8011DB4
:10364400002103689B681B68C3F82011C3F8442554
:103654000122C3F848259A60D3F820110029FBD031
:10366400DA6002B07047002070477047FFF7AEBEC3
:10367400437BDB0603BF8069B0FA80F04009002079
:10368400704738B504464FF02003EFF3118583F3F8
:103694001188BFF36F8F01468068FEF781FC637B5E
:1036A40023F00203637385F31188BFF36F8F002344
:1036B400A36038BD08B5FEF70DFC20B1BDE8084095
:1036C4000846FDF723BD81F31188BFF36F8F08BD52
:1036D40008B50246FEF7FEFB20B1BDE808401046DF
:1036E400FDF714BD82F31188BFF36F8F08BD4FF04F
:1036F4002003EFF3118083F31188BFF36F8FFFF77B
:10370400E7BF0368984214BF18460020704750F87A
:10371400103C70B50446A0F11805CBB14FF020035E
:10372400EFF3118683F31188BFF36F8F294650F8A6
:10373400100CFEF735FC14F80B3C23F0020304F8DC
:103744000B3C86F31188BFF36F8F002344F8103CC1
:1037540014F80B3C284623F0140304F80B3CFFF741
:1037640087FF20B12846BDE87040FEF769BC70BDF4
:10377400437BDB0603BF8069B0FA80F04009002078
:103784007047036D10B5044603B198472046FFF710
:10379400EFFF38B12046FEF7FFFC637B43F00803DC
:1037A400637310BD637B9B0702D52046FFF769FF57
:1037B400A369002BF1D004F1180000F009F8ECE73C
:1037C4000373002342738173C373C0E906337047E4
:1037D40010B54FF02002EFF3118482F31188BFF388
:1037E4006F8F03683BB1FEF7CBFD002084F3118893
:1037F400BFF36F8F10BD6FF01500F7E710B54FF0F2
:103804002003EFF3118483F31188BFF36F8FFEF766
:10381400CDFD84F31188BFF36F8F10BD70B50446DE
:103824000E464FF02003EFF3118583F31188BFF3A5
:103834006F8FFEF7BBFDA04205DD012803DD314695
:103844002046FDF79BF985F31188BFF36F8F70BD98
:023854007047BB
:02385600FFFF72
:083858008CC9FF7F0100000094
:10386000000000004934000000000000493400005E
:10387000000000004934000000000000493400004E
:103880000000000049340000000000004B3300003D
:10389000000000004934000000000000493400002E
:1038A000000000004934000000000000493400001E
:1038B000000000004934000000000000493400000E
:1038C00000000000493400000000000049340000FE
:1038D00000000000493400000000000049340000EE
:1038E00000000000493400000000000049340000DE
:1038F00000000000493400000000000049340000CE
:10390000000000004934000000000000B50A00007B
:1039100000000000493400000000000049340000AD
:10392000000000004934000000000000493400009D
:10393000000000004934000000000000493400008D
:10394000000000004934000000000000493400007D
:10395000000000004934000000000000493400006D
:10396000000000004934000000000000493400005D
:10397000000000004934000000000000493400004D
:10398000000000004934000000000000493400003D
:10399000000000004934000000000000493400002D
:1039A000000000004934000000000000493400001D
:1039B000000000004934000000000000493400000D
:1039C00000000000493400000000000049340000FD
:1039D00000000000493400000000000049340000ED
:1039E00000000000493400000000000049340000DD
:1039F00000000000493400000000000049340000CD
:103A000000000000493400000000000049340000BC
:103A100000000000493400000000000049340000AC
:103A2000000000004934000000000000493400009C
:103A3000000000004934000000000000493400008C
:103A4000000000004934000000000000493400007C
:103A5000000000004934000000000000493400006C
:083A60000000000049340000E1
:103A6800C53D0000E906000000000000C53D00005B
:103A7800F9080000000000009F3D0000B933000075
:103A880000000000A93D0000B9330000000000005C
:103A9800B33D0000010B000000000000C53D000020
:103AA8004519000000000000983D0000F51B0000CB
:103AB800CC3C0000C53D000035250000000000009A
:103AC80002000000D03A000000000000603D000045
:103AD80006000000E0FF0F0000000020683D000025
:103AE80021000000E0FF002089090000000000001C
:103AF80000000000F10900001509000000000000A6
:103B0800170100000701000007010000070100007D
:103B1800070100000701000007010000070100007D
:103B2800070100000701000007010000070100006D
:103B3800070100000701000007010000070100005D
:103B4800070100000701000007010000070100004D
:103B5800070100000701000007010000070100003D
:103B6800070100000701000007010000070100002D
:103B7800070100000701000007010000070100001D
:103B8800453F0000420100004C3F000005010000D5
:103B9800563F0000150100005F3F0000390100009A
:103BA800683F000009010000733F00000A000000A0
:103BB8007E3F00000A010000883F00000B01000062
:103BC800923F00000F0100009D3F0000100100001F
:103BD800A83F000011010000B33F00000E010000E3
:103BE800BD3F000021010000C63F00002201000087
:103BF800CF3F000023010000D83F0000240100004F
:103C0800E13F00002A010000E93F00003A010000FE
:103C1800F13F00002C010000F93F00001C010000EA
:103C2800024000001D0100000B40000031010000AF
:103C3800170100001701000017010000170100001C
:103C4800170100001701000017010000170100000C
:103C5800070100000701000007010000070100003C
:103C6800070100000701000007010000070100002C
:103C7800070100000701000007010000070100001C
:103C8800070100000701000007010000070100000C
:103C980007010000070100000701000007010000FC
:103CA80007010000070100000701000007010000EC
:103CB800193600003D36000003360000951A000052
:103CC800F335000000800050000000009C26002012
:103CD800F0260020FC260020FC260020FC260020E0
:103CE800F5FFFFFF041800204661696C20746F20FF
:103CF80061637175697265206D757465780A000075
:103D08004661696C20746F20696E637265617365C2
:103D180020504D20636F756E7465720A00000000B4
:103D28004661696C20746F206465637265617365B0
:103D380020504D20636F756E7465720A0000000094
:103D48004661696C20746F2072656C6561736520CB
:103D58006D757465780A0000464C4153485F300021
:103D68005352414D5F30004661696C656420746F41
:103D7800207265626F6F743A207370696E6E696E37
:103D88006720656E646C6573736C792E2E2E0A003D
:103D9800554152545F3000434C4F434B5F33324BD5
:103DA80000434C4F434B5F31364D007379735F636B
:103DB8006C6F636B005365637572650909004E6F1C
:103DC8006E2D53656375726509004E6F6E2D5365D0
:103DD8006375726500466C61736820726567696F08
:103DE8006E0909446F6D61696E09095065726D69E4
:103DF8007373696F6E730A00253032752030782529
:103E08003035782030782530357820090025630052
:103E18004E6F6E2D7365637572652063616C6C619E
:103E2800626C6520726567696F6E203020706C6106
:103E380063656420696E20666C61736820726567CB
:103E4800696F6E20256420776974682073697A65C4
:103E58002025642E0A005352414D20726567696F10
:103E68006E0909446F6D61696E09095065726D6963
:103E78007373696F6E730A002530327520307825A8
:103E880030357820307825303578090050657269EA
:103E980070686572616C0909446F6D61696E090922
:103EA8005374617475730A002530327520257309BF
:103EB8000925730009534B49500A00094552524FCE
:103EC800520A00094F4B0A0053504D3A204E5320D6
:103ED800696D61676520617420307825780A005320
:103EE800504D3A204E53204D535020617420307865
:103EF80025780A0053504D3A204E53207265736559
:103F08007420766563746F72206174203078257828
:103F18000A0053504D3A20707265706172652074C2
:103F28006F206A756D7020746F204E6F6E2D53650B
:103F38006375726520696D6167652E0A004E524689
:103F48005F5030004E52465F434C4F434B004E5239
:103F5800465F52544331004E52465F4E564D430021
:103F68004E52465F554152544531004E52465F55B8
:103F78004152544532004E52465F5457494D320023
:103F88004E52465F5350494D33004E52465F544996
:103F98004D455230004E52465F54494D455231000E
:103FA8004E52465F54494D455232004E52465F5379
:103FB80041414443004E52465F50574D30004E52E7
:103FC800465F50574D31004E52465F50574D3200B4
:103FD8004E52465F50574D33004E52465F4950434C
:103FE800004E52465F564D43004E52465F4650556E
:103FF800004E52465F45475531004E52465F454791
:104008005532004E52465F4750494F544531002AB9
:104018002A2A2A2A20425553204641554C54202A00
:104028002A2A2A2A0A002020537461636B696E6762
:10403800206572726F720A0020205072656369737E
:1040480065206461746120627573206572726F7295
:104058000A0020204246415220416464726573730D
:104068003A20307825780A002020496D70726563FF
:10407800697365206461746120627573206572726A
:104088006F720A002020496E737472756374696FC9
:104098006E20627573206572726F720A002A2A2A6E
:1040A8002A2A204D5055204641554C54202A2A2A68
:1040B8002A2A0A002020537461636B696E672065A1
:1040C80072726F722028636F6E74657874206172E3
:1040D8006561206D69676874206265206E6F742061
:1040E80076616C6964290A002020556E73746163D7
:1040F8006B696E67206572726F720A0020204461D6
:104108007461204163636573732056696F6C6174D1
:10411800696F6E0A0020204D4D464152204164646B
:10412800726573733A20307825780A002020496E2A
:10413800737472756374696F6E204163636573731A
:104148002056696F6C6174696F6E0A002020466C96
:104158006F6174696E672D706F696E74206C617A17
:104168007920737461746520707265736572766105
:1041780074696F6E206572726F720A002A2A2A2A81
:104188002A20534543555245204641554C54202A30
:104198002A2A2A2A0A002020416464726573733A25
:1041A80020307825780A002020496E76616C696491
:1041B80020656E74727920706F696E740A00202011
:1041C800496E76616C696420696E7465677269749A
:1041D80079207369676E61747572650A00202049D9
:1041E8006E76616C696420657863657074696F6E5A
:1041F8002072657475726E0A0020204174747269A9
:10420800627574696F6E20756E69742076696F6C5B
:104218006174696F6E0A002020496E76616C69646A
:10422800207472616E736974696F6E0A0020204C85
:10423800617A792073746174652070726573657230
:10424800766174696F6E0A0020204C617A79207358
:1042580074617465206572726F720A002A2A2A2AAC
:104268002A205553414745204641554C54202A2A77
:104278002A2A2A0A0020204469766973696F6E2009
:104288006279207A65726F0A002020556E616C6928
:10429800676E6564206D656D6F7279206163636513
:1042A80073730A002020537461636B206F76657204
:1042B800666C6F772028636F6E74657874206172FE
:1042C8006561206E6F742076616C6964290A00202C
:1042D800204E6F20636F70726F636573736F722007
:1042E800696E737472756374696F6E730A00202047
:1042F800496C6C6567616C206C6F6164206F662027
:104308004558435F52455455524E20696E746F208C
:1043180050430A002020496C6C6567616C207573F6
:1043280065206F662074686520455053520A002046
:1043380020417474656D707420746F2065786563AE
:1043480075746520756E646566696E656420696E4E
:10435800737472756374696F6E0A0052657365725F
:1043680076656420457863657074696F6E202800EF
:1043780053707572696F757320696E7465727275A2
:1043880070742028495251200020205320696E73F0
:104398007472756374696F6E206164647265737397
:1043A8003A2020307825780A00524554544F42412B
:1043B800534520646F6573206E6F74206D6174635C
:1043C80068204558435F52455455524E0A002A2AE0
:1043D8002A2A2A2048415244204641554C54202A32
:1043E8002A2A2A2A0A002020427573206661756CE1
:1043F80074206F6E20766563746F72207461626CCE
:104408006520726561640A0020204661756C74201D
:10441800657363616C6174696F6E202873656520CC
:1044280062656C6F77290A002A2A2A2A2A2044659D
:10443800627567206D6F6E69746F72206578636549
:104448007074696F6E20286E6F7420696D706C656A
:104458006D656E74656429202A2A2A2A2A0A002A88
:104468002A2A2A2A20257320256429202A2A2A2A4A
:104478002A0A002A2A2A2A2A204861726477617245
:104488006520657863657074696F6E202A2A2A2A08
:104498002A0A002A2A2A2A204B65726E656C204156
:1044A8006C6C6F636174696F6E204661696C7572BC
:1044B8006521202A2A2A2A0A002A2A2A2A2A204B5F
:1044C80065726E656C204F4F505321202A2A2A2A84
:1044D8002A0A002A2A2A2A2A204B65726E656C202D
:1044E80050616E696321202A2A2A2A2A0A002A2A68
:1044F8002A2A20556E6B6E6F776E20466174616C48
:10450800204572726F7220256421202A2A2A2A0ADD
:104518000043757272656E742074687265616420F8
:104528004944203D2025700A4661756C74696E67A0
:1045380020696E737472756374696F6E2061646448
:1045480072657373203D20307825780A00495352EC
:1045580000657373656E7469616C20746872656157
:104568006400466174616C206661756C7420696EC4
:1045780020257321205370696E6E696E672E2E2E6A
:104588000A00466174616C206661756C7420696EFE
:1045980020746872656164202570212041626F7201
:1045A80074696E672E0A002A2A2A2A2A20426F6F07
:1045B80074696E67205A6570687972204F53207647
:1045C800312E31342E39392D6E637332202A2A2A3E
:1045D8002A2A0A006D61696E0069646C6500000032
:1045E800533000000090D003ED35000000C20100F8
:1045F80000010300000000006B3600006F36000069
:0C460800AB350000942600209426002012
:10461400683A00000000000000000000BC3A0000FE
:104624000000000000000000A43A000000000000A8
:1046340000000000803A0000F03A00000000000092
:104644008C3A0000FC3A000000000000B03A000080
:10465400B83C00007C260020743A000000000000F2
:1046640000000000983A0000000000000000000074
:10467400FC260020FC2600200000000000000000B2
:044684000F00000023
:10468800FFFFFFFFFFFFFFFFFFFFFFFFFFFFFFFF32
:08469800FFFFFFFFFFFFFFFF22
:1046A000000000000000000000000000000000000A
:1046B00000000000000000000000000000000000FA
:107FE0007FE97FE9F8F7BABF7FE97FE9FBF7F2B9EC
:107FF0000000000000000000000000000000000081
:04000003000016B92A
:00000001FF
